{"contracts/TokenFactory.sol":{"TokenFactory":{"abi":[{"inputs":[],"stateMutability":"nonpayable","type":"constructor"},{"inputs":[{"internalType":"address","name":"owner","type":"address"}],"name":"OwnableInvalidOwner","type":"error"},{"inputs":[{"internalType":"address","name":"account","type":"address"}],"name":"OwnableUnauthorizedAccount","type":"error"},{"anonymous":false,"inputs":[{"indexed":true,"internalType":"address","name":"previousOwner","type":"address"},{"indexed":true,"internalType":"address","name":"newOwner","type":"address"}],"name":"OwnershipTransferred","type":"event"},{"anonymous":false,"inputs":[{"indexed":true,"internalType":"address","name":"tokenAddress","type":"address"},{"indexed":false,"internalType":"string","name":"name","type":"string"},{"indexed":false,"internalType":"string","name":"symbol","type":"string"},{"indexed":false,"internalType":"uint8","name":"decimals","type":"uint8"},{"indexed":true,"internalType":"address","name":"owner","type":"address"},{"indexed":false,"internalType":"string","name":"merchantId","type":"string"}],"name":"TokenCreated","type":"event"},{"inputs":[{"internalType":"string","name":"name","type":"string"},{"internalType":"string","name":"symbol","type":"string"},{"internalType":"uint8","name":"decimals","type":"uint8"},{"internalType":"string","name":"merchantId","type":"string"}],"name":"createToken","outputs":[{"internalType":"address","name":"tokenAddress","type":"address"}],"stateMutability":"nonpayable","type":"function"},{"inputs":[{"internalType":"uint256","name":"","type":"uint256"}],"name":"deployedTokens","outputs":[{"internalType":"address","name":"","type":"address"}],"stateMutability":"view","type":"function"},{"inputs":[],"name":"getAllTokens","outputs":[{"internalType":"address[]","name":"","type":"address[]"}],"stateMutability":"view","type":"function"},{"inputs":[{"internalType":"string","name":"merchantId","type":"string"}],"name":"getTokenByMerchant","outputs":[{"internalType":"address","name":"","type":"address"}],"stateMutability":"view","type":"function"},{"inputs":[],"name":"getTokenCount","outputs":[{"internalType":"uint256","name":"","type":"uint256"}],"stateMutability":"view","type":"function"},{"inputs":[{"internalType":"uint256","name":"offset","type":"uint256"},{"internalType":"uint256","name":"limit","type":"uint256"}],"name":"getTokensPaginated","outputs":[{"internalType":"address[]","name":"tokens","type":"address[]"}],"stateMutability":"view","type":"function"},{"inputs":[{"internalType":"address","name":"","type":"address"}],"name":"isDeployedToken","outputs":[{"internalType":"bool","name":"","type":"bool"}],"stateMutability":"view","type":"function"},{"inputs":[{"internalType":"address","name":"tokenAddress","type":"address"}],"name":"isToken","outputs":[{"internalType":"bool","name":"","type":"bool"}],"stateMutability":"view","type":"function"},{"inputs":[{"internalType":"string","name":"","type":"string"}],"name":"merchantTokens","outputs":[{"internalType":"address","name":"","type":"address"}],"stateMutability":"view","type":"function"},{"inputs":[],"name":"owner","outputs":[{"internalType":"address","name":"","type":"address"}],"stateMutability":"view","type":"function"},{"inputs":[],"name":"renounceOwnership","outputs":[],"stateMutability":"nonpayable","type":"function"},{"inputs":[{"internalType":"address","name":"newOwner","type":"address"}],"name":"transferOwnership","outputs":[],"stateMutability":"nonpayable","type":"function"}],"evm":{"bytecode":{"linkReferences":{},"object":"608060405234801561001057600080fd5b50338061003757604051631e4fbdf760e01b81526000600482015260240160405180910390fd5b61004081610046565b50610096565b600080546001600160a01b038381166001600160a01b0319831681178455604051919092169283917f8be0079c531659141344cd1fd0a4f28419497f9722a3daafe3b4186f6b6457e09190a35050565b611e11806100a56000396000f3fe60806040523480156200001157600080fd5b5060043610620000c35760003560e01c806374594c86116200007a57806374594c86146200019e57806378a8956714620001b55780637ed3097914620001c75780638da5cb5b14620001fe578063ec81aadb1462000210578063f2fde38b146200022757600080fd5b806319f3736114620000c85780632482ee27146200010c5780632a5c792a146200013c5780634238b69214620001555780634c1c7ddf146200016c578063715018a61462000192575b600080fd5b620000f7620000d936600462000736565b6001600160a01b031660009081526003602052604090205460ff1690565b60405190151581526020015b60405180910390f35b620001236200011d366004620007b4565b6200023e565b6040516001600160a01b03909116815260200162000103565b6200014662000455565b60405162000103919062000874565b6200014662000166366004620008c3565b620004b9565b620000f76200017d36600462000736565b60036020526000908152604090205460ff1681565b6200019c620005eb565b005b62000123620001af366004620008e6565b62000603565b60015460405190815260200162000103565b62000123620001d836600462000942565b80516020818301810180516002825292820191909301209152546001600160a01b031681565b6000546001600160a01b031662000123565b6200012362000221366004620009fd565b6200063a565b6200019c6200023836600462000736565b62000665565b60006200024a620006a9565b60006001600160a01b0316600284846040516200026992919062000a17565b908152604051908190036020019020546001600160a01b031614620002e85760405162461bcd60e51b815260206004820152602a60248201527f546f6b656e466163746f72793a204d65726368616e7420616c7265616479206860448201526930b99030903a37b5b2b760b11b60648201526084015b60405180910390fd5b60008888888888620003026000546001600160a01b031690565b8989604051620003129062000728565b6200032598979695949392919062000a50565b604051809103906000f08015801562000342573d6000803e3d6000fd5b506001805480820182556000919091527fb10e2d527612073b26eecdfd717e6a320cf44b4afac2b0732d9fcbe2b7fa0cf60180546001600160a01b0319166001600160a01b0383161790556040519092508291508190600290620003aa908790879062000a17565b908152604080516020928190038301902080546001600160a01b0319166001600160a01b03948516179055848316600090815260039092528120805460ff1916600117905554166001600160a01b0316826001600160a01b03167f1467801a611ad018cd94e13039e550455998beca5bb67dc6746f5ca45b42d3c38b8b8b8b8b8b8b60405162000441979695949392919062000ab9565b60405180910390a350979650505050505050565b60606001805480602002602001604051908101604052809291908181526020018280548015620004af57602002820191906000526020600020905b81546001600160a01b0316815260019091019060200180831162000490575b5050505050905090565b600154606090808410620004de575050604080516000815260208101909152620005e5565b6000620004ec848662000b28565b905081811115620004fa5750805b600062000508868362000b3e565b90508067ffffffffffffffff8111156200052657620005266200092c565b60405190808252806020026020018201604052801562000550578160200160208202803683370190505b50935060005b81811015620005e05760016200056d828962000b28565b8154811062000580576200058062000b54565b9060005260206000200160009054906101000a90046001600160a01b0316858281518110620005b357620005b362000b54565b6001600160a01b039092166020928302919091019091015280620005d78162000b6a565b91505062000556565b505050505b92915050565b620005f5620006a9565b620006016000620006d8565b565b6000600283836040516200061992919062000a17565b908152604051908190036020019020546001600160a01b0316905092915050565b600181815481106200064b57600080fd5b6000918252602090912001546001600160a01b0316905081565b6200066f620006a9565b6001600160a01b0381166200069b57604051631e4fbdf760e01b815260006004820152602401620002df565b620006a681620006d8565b50565b6000546001600160a01b03163314620006015760405163118cdaa760e01b8152336004820152602401620002df565b600080546001600160a01b038381166001600160a01b0319831681178455604051919092169283917f8be0079c531659141344cd1fd0a4f28419497f9722a3daafe3b4186f6b6457e09190a35050565b6112558062000b8783390190565b6000602082840312156200074957600080fd5b81356001600160a01b03811681146200076157600080fd5b9392505050565b60008083601f8401126200077b57600080fd5b50813567ffffffffffffffff8111156200079457600080fd5b602083019150836020828501011115620007ad57600080fd5b9250929050565b60008060008060008060006080888a031215620007d057600080fd5b873567ffffffffffffffff80821115620007e957600080fd5b620007f78b838c0162000768565b909950975060208a01359150808211156200081157600080fd5b6200081f8b838c0162000768565b909750955060408a0135915060ff821682146200083b57600080fd5b909350606089013590808211156200085257600080fd5b50620008618a828b0162000768565b989b979a50959850939692959293505050565b6020808252825182820181905260009190848201906040850190845b81811015620008b75783516001600160a01b03168352928401929184019160010162000890565b50909695505050505050565b60008060408385031215620008d757600080fd5b50508035926020909101359150565b60008060208385031215620008fa57600080fd5b823567ffffffffffffffff8111156200091257600080fd5b620009208582860162000768565b90969095509350505050565b634e487b7160e01b600052604160045260246000fd5b6000602082840312156200095557600080fd5b813567ffffffffffffffff808211156200096e57600080fd5b818401915084601f8301126200098357600080fd5b8135818111156200099857620009986200092c565b604051601f8201601f19908116603f01168101908382118183101715620009c357620009c36200092c565b81604052828152876020848701011115620009dd57600080fd5b826020860160208301376000928101602001929092525095945050505050565b60006020828403121562000a1057600080fd5b5035919050565b8183823760009101908152919050565b81835281816020850137506000828201602090810191909152601f909101601f19169091010190565b60a08152600062000a6660a083018a8c62000a27565b828103602084015262000a7b81898b62000a27565b60ff881660408501526001600160a01b03871660608501528381036080850152905062000aaa81858762000a27565b9b9a5050505050505050505050565b60808152600062000acf60808301898b62000a27565b828103602084015262000ae481888a62000a27565b905060ff86166040840152828103606084015262000b0481858762000a27565b9a9950505050505050505050565b634e487b7160e01b600052601160045260246000fd5b80820180821115620005e557620005e562000b12565b81810381811115620005e557620005e562000b12565b634e487b7160e01b600052603260045260246000fd5b60006001820162000b7f5762000b7f62000b12565b506001019056fe60a06040523480156200001157600080fd5b5060405162001255380380620012558339810160408190526200003491620001ca565b818585600362000045838262000326565b50600462000054828262000326565b5050506001600160a01b0381166200008657604051631e4fbdf760e01b81526000600482015260240160405180910390fd5b6200009181620000b3565b5060ff83166080526006620000a7828262000326565b505050505050620003f2565b600580546001600160a01b038381166001600160a01b0319831681179093556040519116919082907f8be0079c531659141344cd1fd0a4f28419497f9722a3daafe3b4186f6b6457e090600090a35050565b634e487b7160e01b600052604160045260246000fd5b600082601f8301126200012d57600080fd5b81516001600160401b03808211156200014a576200014a62000105565b604051601f8301601f19908116603f0116810190828211818310171562000175576200017562000105565b816040528381526020925086838588010111156200019257600080fd5b600091505b83821015620001b6578582018301518183018401529082019062000197565b600093810190920192909252949350505050565b600080600080600060a08688031215620001e357600080fd5b85516001600160401b0380821115620001fb57600080fd5b6200020989838a016200011b565b965060208801519150808211156200022057600080fd5b6200022e89838a016200011b565b95506040880151915060ff821682146200024757600080fd5b60608801519194506001600160a01b03821682146200026557600080fd5b6080880151919350808211156200027b57600080fd5b506200028a888289016200011b565b9150509295509295909350565b600181811c90821680620002ac57607f821691505b602082108103620002cd57634e487b7160e01b600052602260045260246000fd5b50919050565b601f8211156200032157600081815260208120601f850160051c81016020861015620002fc5750805b601f850160051c820191505b818110156200031d5782815560010162000308565b5050505b505050565b81516001600160401b0381111562000342576200034262000105565b6200035a8162000353845462000297565b84620002d3565b602080601f831160018114620003925760008415620003795750858301515b600019600386901b1c1916600185901b1785556200031d565b600085815260208120601f198616915b82811015620003c357888601518255948401946001909101908401620003a2565b5085821015620003e25787850151600019600388901b60f8161c191681555b5050505050600190811b01905550565b608051610e476200040e60003960006101d10152610e476000f3fe608060405234801561001057600080fd5b50600436106101425760003560e01c806370a08231116100b85780638da5cb5b1161007c5780638da5cb5b1461029a57806395d89b41146102b5578063a9059cbb146102bd578063d6b8de93146102d0578063dd62ed3e146102e3578063f2fde38b1461031c57600080fd5b806370a082311461023b578063715018a61461026457806379cc67901461026c5780637ca485131461027f5780638456cb591461029257600080fd5b806323b872dd1161010a57806323b872dd146101b7578063313ce567146101ca5780633f4ba83a146101fb57806340c10f191461020357806342966c68146102165780635c975abb1461022957600080fd5b806306fdde0314610147578063091273a714610165578063095ea7b31461017a57806312f33a401461019d57806318160ddd146101a5575b600080fd5b61014f61032f565b60405161015c9190610b53565b60405180910390f35b610178610173366004610bea565b6103c1565b005b61018d610188366004610c52565b61041d565b604051901515815260200161015c565b61014f610437565b6002545b60405190815260200161015c565b61018d6101c5366004610c7c565b6104c5565b60405160ff7f000000000000000000000000000000000000000000000000000000000000000016815260200161015c565b6101786104e9565b610178610211366004610c52565b6104fb565b610178610224366004610cb8565b610519565b600554600160a01b900460ff1661018d565b6101a9610249366004610cd1565b6001600160a01b031660009081526020819052604090205490565b610178610526565b61017861027a366004610c52565b610538565b61017861028d366004610cf3565b61054d565b6101786105b2565b6005546040516001600160a01b03909116815260200161015c565b61014f6105c2565b61018d6102cb366004610c52565b6105d1565b6101786102de366004610cf3565b6105df565b6101a96102f1366004610d4d565b6001600160a01b03918216600090815260016020908152604080832093909416825291909152205490565b61017861032a366004610cd1565b610639565b60606003805461033e90610d80565b80601f016020809104026020016040519081016040528092919081815260200182805461036a90610d80565b80156103b75780601f1061038c576101008083540402835291602001916103b7565b820191906000526020600020905b81548152906001019060200180831161039a57829003601f168201915b5050505050905090565b6103c9610679565b6103d333846106a4565b336001600160a01b03167ffad31924d655455395c87544c8aa1ffdb5a7505a22a3c2e03f28003b6556a75f84848460405161041093929190610dba565b60405180910390a2505050565b60003361042b8185856106da565b60019150505b92915050565b6006805461044490610d80565b80601f016020809104026020016040519081016040528092919081815260200182805461047090610d80565b80156104bd5780601f10610492576101008083540402835291602001916104bd565b820191906000526020600020905b8154815290600101906020018083116104a057829003601f168201915b505050505081565b6000336104d38582856106ec565b6104de85858561076b565b506001949350505050565b6104f16107ca565b6104f96107f7565b565b6105036107ca565b61050b610679565b610515828261084c565b5050565b61052333826106a4565b50565b61052e6107ca565b6104f96000610882565b6105438233836106ec565b61051582826106a4565b6105556107ca565b61055d610679565b610567848461084c565b836001600160a01b03167f9d89e36eadf856db0ad9ffb5a569e07f95634dddd9501141ecf04820484ad0dc8484846040516105a493929190610dba565b60405180910390a250505050565b6105ba6107ca565b6104f96108d4565b60606004805461033e90610d80565b60003361042b81858561076b565b6105e7610679565b6105f28433856106ec565b6105fc84846106a4565b836001600160a01b03167ffad31924d655455395c87544c8aa1ffdb5a7505a22a3c2e03f28003b6556a75f8484846040516105a493929190610dba565b6106416107ca565b6001600160a01b03811661067057604051631e4fbdf760e01b8152600060048201526024015b60405180910390fd5b61052381610882565b600554600160a01b900460ff16156104f95760405163d93c066560e01b815260040160405180910390fd5b6001600160a01b0382166106ce57604051634b637e8f60e11b815260006004820152602401610667565b61051582600083610917565b6106e7838383600161092a565b505050565b6001600160a01b03838116600090815260016020908152604080832093861683529290522054600019811015610765578181101561075657604051637dc7a0d960e11b81526001600160a01b03841660048201526024810182905260448101839052606401610667565b6107658484848403600061092a565b50505050565b6001600160a01b03831661079557604051634b637e8f60e11b815260006004820152602401610667565b6001600160a01b0382166107bf5760405163ec442f0560e01b815260006004820152602401610667565b6106e7838383610917565b6005546001600160a01b031633146104f95760405163118cdaa760e01b8152336004820152602401610667565b6107ff6109ff565b6005805460ff60a01b191690557f5db9ee0a495bf2e6ff9c91a7834c1ba4fdd244a5e8aa4e537bd38aeae4b073aa335b6040516001600160a01b03909116815260200160405180910390a1565b6001600160a01b0382166108765760405163ec442f0560e01b815260006004820152602401610667565b61051560008383610917565b600580546001600160a01b038381166001600160a01b0319831681179093556040519116919082907f8be0079c531659141344cd1fd0a4f28419497f9722a3daafe3b4186f6b6457e090600090a35050565b6108dc610679565b6005805460ff60a01b1916600160a01b1790557f62e78cea01bee320cd4e420270b5ea74000d11b0c9f74754ebdbfc544b05a25861082f3390565b61091f610679565b6106e7838383610a29565b6001600160a01b0384166109545760405163e602df0560e01b815260006004820152602401610667565b6001600160a01b03831661097e57604051634a1406b160e11b815260006004820152602401610667565b6001600160a01b038085166000908152600160209081526040808320938716835292905220829055801561076557826001600160a01b0316846001600160a01b03167f8c5be1e5ebec7d5bd14f71427d1e84f3dd0314c0f7b2291e5b200ac8c7c3b925846040516109f191815260200190565b60405180910390a350505050565b600554600160a01b900460ff166104f957604051638dfc202b60e01b815260040160405180910390fd5b6001600160a01b038316610a54578060026000828254610a499190610df0565b90915550610ac69050565b6001600160a01b03831660009081526020819052604090205481811015610aa75760405163391434e360e21b81526001600160a01b03851660048201526024810182905260448101839052606401610667565b6001600160a01b03841660009081526020819052604090209082900390555b6001600160a01b038216610ae257600280548290039055610b01565b6001600160a01b03821660009081526020819052604090208054820190555b816001600160a01b0316836001600160a01b03167fddf252ad1be2c89b69c2b068fc378daa952ba7f163c4a11628f55a4df523b3ef83604051610b4691815260200190565b60405180910390a3505050565b600060208083528351808285015260005b81811015610b8057858101830151858201604001528201610b64565b506000604082860101526040601f19601f8301168501019250505092915050565b60008083601f840112610bb357600080fd5b50813567ffffffffffffffff811115610bcb57600080fd5b602083019150836020828501011115610be357600080fd5b9250929050565b600080600060408486031215610bff57600080fd5b83359250602084013567ffffffffffffffff811115610c1d57600080fd5b610c2986828701610ba1565b9497909650939450505050565b80356001600160a01b0381168114610c4d57600080fd5b919050565b60008060408385031215610c6557600080fd5b610c6e83610c36565b946020939093013593505050565b600080600060608486031215610c9157600080fd5b610c9a84610c36565b9250610ca860208501610c36565b9150604084013590509250925092565b600060208284031215610cca57600080fd5b5035919050565b600060208284031215610ce357600080fd5b610cec82610c36565b9392505050565b60008060008060608587031215610d0957600080fd5b610d1285610c36565b935060208501359250604085013567ffffffffffffffff811115610d3557600080fd5b610d4187828801610ba1565b95989497509550505050565b60008060408385031215610d6057600080fd5b610d6983610c36565b9150610d7760208401610c36565b90509250929050565b600181811c90821680610d9457607f821691505b602082108103610db457634e487b7160e01b600052602260045260246000fd5b50919050565b83815260406020820152816040820152818360608301376000818301606090810191909152601f909201601f1916010192915050565b8082018082111561043157634e487b7160e01b600052601160045260246000fdfea2646970667358221220c91bde82cf4c35f96761d71be6fd8f79963828866e90398271a88ca829dee88864736f6c63430008140033a2646970667358221220896132a42c308a8d8629ecd9962311fa4a5c89b31aad35e76328d0813180483464736f6c63430008140033","opcodes":"PUSH1 0x80 PUSH1 0x40 MSTORE CALLVALUE DUP1 ISZERO PUSH2 0x10 JUMPI PUSH1 0x0 DUP1 REVERT JUMPDEST POP CALLER DUP1 PUSH2 0x37 JUMPI PUSH1 0x40 MLOAD PUSH4 0x1E4FBDF7 PUSH1 0xE0 SHL DUP2 MSTORE PUSH1 0x0 PUSH1 0x4 DUP3 ADD MSTORE PUSH1 0x24 ADD PUSH1 0x40 MLOAD DUP1 SWAP2 SUB SWAP1 REVERT JUMPDEST PUSH2 0x40 DUP2 PUSH2 0x46 JUMP JUMPDEST POP PUSH2 0x96 JUMP JUMPDEST PUSH1 0x0 DUP1 SLOAD PUSH1 0x1 PUSH1 0x1 PUSH1 0xA0 SHL SUB DUP4 DUP2 AND PUSH1 0x1 PUSH1 0x1 PUSH1 0xA0 SHL SUB NOT DUP4 AND DUP2 OR DUP5 SSTORE PUSH1 0x40 MLOAD SWAP2 SWAP1 SWAP3 AND SWAP3 DUP4 SWAP2 PUSH32 0x8BE0079C531659141344CD1FD0A4F28419497F9722A3DAAFE3B4186F6B6457E0 SWAP2 SWAP1 LOG3 POP POP JUMP JUMPDEST PUSH2 0x1E11 DUP1 PUSH2 0xA5 PUSH1 0x0 CODECOPY PUSH1 0x0 RETURN INVALID PUSH1 0x80 PUSH1 0x40 MSTORE CALLVALUE DUP1 ISZERO PUSH3 0x11 JUMPI PUSH1 0x0 DUP1 REVERT JUMPDEST POP PUSH1 0x4 CALLDATASIZE LT PUSH3 0xC3 JUMPI PUSH1 0x0 CALLDATALOAD PUSH1 0xE0 SHR DUP1 PUSH4 0x74594C86 GT PUSH3 0x7A JUMPI DUP1 PUSH4 0x74594C86 EQ PUSH3 0x19E JUMPI DUP1 PUSH4 0x78A89567 EQ PUSH3 0x1B5 JUMPI DUP1 PUSH4 0x7ED30979 EQ PUSH3 0x1C7 JUMPI DUP1 PUSH4 0x8DA5CB5B EQ PUSH3 0x1FE JUMPI DUP1 PUSH4 0xEC81AADB EQ PUSH3 0x210 JUMPI DUP1 PUSH4 0xF2FDE38B EQ PUSH3 0x227 JUMPI PUSH1 0x0 DUP1 REVERT JUMPDEST DUP1 PUSH4 0x19F37361 EQ PUSH3 0xC8 JUMPI DUP1 PUSH4 0x2482EE27 EQ PUSH3 0x10C JUMPI DUP1 PUSH4 0x2A5C792A EQ PUSH3 0x13C JUMPI DUP1 PUSH4 0x4238B692 EQ PUSH3 0x155 JUMPI DUP1 PUSH4 0x4C1C7DDF EQ PUSH3 0x16C JUMPI DUP1 PUSH4 0x715018A6 EQ PUSH3 0x192 JUMPI JUMPDEST PUSH1 0x0 DUP1 REVERT JUMPDEST PUSH3 0xF7 PUSH3 0xD9 CALLDATASIZE PUSH1 0x4 PUSH3 0x736 JUMP JUMPDEST PUSH1 0x1 PUSH1 0x1 PUSH1 0xA0 SHL SUB AND PUSH1 0x0 SWAP1 DUP2 MSTORE PUSH1 0x3 PUSH1 0x20 MSTORE PUSH1 0x40 SWAP1 KECCAK256 SLOAD PUSH1 0xFF AND SWAP1 JUMP JUMPDEST PUSH1 0x40 MLOAD SWAP1 ISZERO ISZERO DUP2 MSTORE PUSH1 0x20 ADD JUMPDEST PUSH1 0x40 MLOAD DUP1 SWAP2 SUB SWAP1 RETURN JUMPDEST PUSH3 0x123 PUSH3 0x11D CALLDATASIZE PUSH1 0x4 PUSH3 0x7B4 JUMP JUMPDEST PUSH3 0x23E JUMP JUMPDEST PUSH1 0x40 MLOAD PUSH1 0x1 PUSH1 0x1 PUSH1 0xA0 SHL SUB SWAP1 SWAP2 AND DUP2 MSTORE PUSH1 0x20 ADD PUSH3 0x103 JUMP JUMPDEST PUSH3 0x146 PUSH3 0x455 JUMP JUMPDEST PUSH1 0x40 MLOAD PUSH3 0x103 SWAP2 SWAP1 PUSH3 0x874 JUMP JUMPDEST PUSH3 0x146 PUSH3 0x166 CALLDATASIZE PUSH1 0x4 PUSH3 0x8C3 JUMP JUMPDEST PUSH3 0x4B9 JUMP JUMPDEST PUSH3 0xF7 PUSH3 0x17D CALLDATASIZE PUSH1 0x4 PUSH3 0x736 JUMP JUMPDEST PUSH1 0x3 PUSH1 0x20 MSTORE PUSH1 0x0 SWAP1 DUP2 MSTORE PUSH1 0x40 SWAP1 KECCAK256 SLOAD PUSH1 0xFF AND DUP2 JUMP JUMPDEST PUSH3 0x19C PUSH3 0x5EB JUMP JUMPDEST STOP JUMPDEST PUSH3 0x123 PUSH3 0x1AF CALLDATASIZE PUSH1 0x4 PUSH3 0x8E6 JUMP JUMPDEST PUSH3 0x603 JUMP JUMPDEST PUSH1 0x1 SLOAD PUSH1 0x40 MLOAD SWAP1 DUP2 MSTORE PUSH1 0x20 ADD PUSH3 0x103 JUMP JUMPDEST PUSH3 0x123 PUSH3 0x1D8 CALLDATASIZE PUSH1 0x4 PUSH3 0x942 JUMP JUMPDEST DUP1 MLOAD PUSH1 0x20 DUP2 DUP4 ADD DUP2 ADD DUP1 MLOAD PUSH1 0x2 DUP3 MSTORE SWAP3 DUP3 ADD SWAP2 SWAP1 SWAP4 ADD KECCAK256 SWAP2 MSTORE SLOAD PUSH1 0x1 PUSH1 0x1 PUSH1 0xA0 SHL SUB AND DUP2 JUMP JUMPDEST PUSH1 0x0 SLOAD PUSH1 0x1 PUSH1 0x1 PUSH1 0xA0 SHL SUB AND PUSH3 0x123 JUMP JUMPDEST PUSH3 0x123 PUSH3 0x221 CALLDATASIZE PUSH1 0x4 PUSH3 0x9FD JUMP JUMPDEST PUSH3 0x63A JUMP JUMPDEST PUSH3 0x19C PUSH3 0x238 CALLDATASIZE PUSH1 0x4 PUSH3 0x736 JUMP JUMPDEST PUSH3 0x665 JUMP JUMPDEST PUSH1 0x0 PUSH3 0x24A PUSH3 0x6A9 JUMP JUMPDEST PUSH1 0x0 PUSH1 0x1 PUSH1 0x1 PUSH1 0xA0 SHL SUB AND PUSH1 0x2 DUP5 DUP5 PUSH1 0x40 MLOAD PUSH3 0x269 SWAP3 SWAP2 SWAP1 PUSH3 0xA17 JUMP JUMPDEST SWAP1 DUP2 MSTORE PUSH1 0x40 MLOAD SWAP1 DUP2 SWAP1 SUB PUSH1 0x20 ADD SWAP1 KECCAK256 SLOAD PUSH1 0x1 PUSH1 0x1 PUSH1 0xA0 SHL SUB AND EQ PUSH3 0x2E8 JUMPI PUSH1 0x40 MLOAD PUSH3 0x461BCD PUSH1 0xE5 SHL DUP2 MSTORE PUSH1 0x20 PUSH1 0x4 DUP3 ADD MSTORE PUSH1 0x2A PUSH1 0x24 DUP3 ADD MSTORE PUSH32 0x546F6B656E466163746F72793A204D65726368616E7420616C72656164792068 PUSH1 0x44 DUP3 ADD MSTORE PUSH10 0x30B99030903A37B5B2B7 PUSH1 0xB1 SHL PUSH1 0x64 DUP3 ADD MSTORE PUSH1 0x84 ADD JUMPDEST PUSH1 0x40 MLOAD DUP1 SWAP2 SUB SWAP1 REVERT JUMPDEST PUSH1 0x0 DUP9 DUP9 DUP9 DUP9 DUP9 PUSH3 0x302 PUSH1 0x0 SLOAD PUSH1 0x1 PUSH1 0x1 PUSH1 0xA0 SHL SUB AND SWAP1 JUMP JUMPDEST DUP10 DUP10 PUSH1 0x40 MLOAD PUSH3 0x312 SWAP1 PUSH3 0x728 JUMP JUMPDEST PUSH3 0x325 SWAP9 SWAP8 SWAP7 SWAP6 SWAP5 SWAP4 SWAP3 SWAP2 SWAP1 PUSH3 0xA50 JUMP JUMPDEST PUSH1 0x40 MLOAD DUP1 SWAP2 SUB SWAP1 PUSH1 0x0 CREATE DUP1 ISZERO DUP1 ISZERO PUSH3 0x342 JUMPI RETURNDATASIZE PUSH1 0x0 DUP1 RETURNDATACOPY RETURNDATASIZE PUSH1 0x0 REVERT JUMPDEST POP PUSH1 0x1 DUP1 SLOAD DUP1 DUP3 ADD DUP3 SSTORE PUSH1 0x0 SWAP2 SWAP1 SWAP2 MSTORE PUSH32 0xB10E2D527612073B26EECDFD717E6A320CF44B4AFAC2B0732D9FCBE2B7FA0CF6 ADD DUP1 SLOAD PUSH1 0x1 PUSH1 0x1 PUSH1 0xA0 SHL SUB NOT AND PUSH1 0x1 PUSH1 0x1 PUSH1 0xA0 SHL SUB DUP4 AND OR SWAP1 SSTORE PUSH1 0x40 MLOAD SWAP1 SWAP3 POP DUP3 SWAP2 POP DUP2 SWAP1 PUSH1 0x2 SWAP1 PUSH3 0x3AA SWAP1 DUP8 SWAP1 DUP8 SWAP1 PUSH3 0xA17 JUMP JUMPDEST SWAP1 DUP2 MSTORE PUSH1 0x40 DUP1 MLOAD PUSH1 0x20 SWAP3 DUP2 SWAP1 SUB DUP4 ADD SWAP1 KECCAK256 DUP1 SLOAD PUSH1 0x1 PUSH1 0x1 PUSH1 0xA0 SHL SUB NOT AND PUSH1 0x1 PUSH1 0x1 PUSH1 0xA0 SHL SUB SWAP5 DUP6 AND OR SWAP1 SSTORE DUP5 DUP4 AND PUSH1 0x0 SWAP1 DUP2 MSTORE PUSH1 0x3 SWAP1 SWAP3 MSTORE DUP2 KECCAK256 DUP1 SLOAD PUSH1 0xFF NOT AND PUSH1 0x1 OR SWAP1 SSTORE SLOAD AND PUSH1 0x1 PUSH1 0x1 PUSH1 0xA0 SHL SUB AND DUP3 PUSH1 0x1 PUSH1 0x1 PUSH1 0xA0 SHL SUB AND PUSH32 0x1467801A611AD018CD94E13039E550455998BECA5BB67DC6746F5CA45B42D3C3 DUP12 DUP12 DUP12 DUP12 DUP12 DUP12 DUP12 PUSH1 0x40 MLOAD PUSH3 0x441 SWAP8 SWAP7 SWAP6 SWAP5 SWAP4 SWAP3 SWAP2 SWAP1 PUSH3 0xAB9 JUMP JUMPDEST PUSH1 0x40 MLOAD DUP1 SWAP2 SUB SWAP1 LOG3 POP SWAP8 SWAP7 POP POP POP POP POP POP POP JUMP JUMPDEST PUSH1 0x60 PUSH1 0x1 DUP1 SLOAD DUP1 PUSH1 0x20 MUL PUSH1 0x20 ADD PUSH1 0x40 MLOAD SWAP1 DUP2 ADD PUSH1 0x40 MSTORE DUP1 SWAP3 SWAP2 SWAP1 DUP2 DUP2 MSTORE PUSH1 0x20 ADD DUP3 DUP1 SLOAD DUP1 ISZERO PUSH3 0x4AF JUMPI PUSH1 0x20 MUL DUP3 ADD SWAP2 SWAP1 PUSH1 0x0 MSTORE PUSH1 0x20 PUSH1 0x0 KECCAK256 SWAP1 JUMPDEST DUP2 SLOAD PUSH1 0x1 PUSH1 0x1 PUSH1 0xA0 SHL SUB AND DUP2 MSTORE PUSH1 0x1 SWAP1 SWAP2 ADD SWAP1 PUSH1 0x20 ADD DUP1 DUP4 GT PUSH3 0x490 JUMPI JUMPDEST POP POP POP POP POP SWAP1 POP SWAP1 JUMP JUMPDEST PUSH1 0x1 SLOAD PUSH1 0x60 SWAP1 DUP1 DUP5 LT PUSH3 0x4DE JUMPI POP POP PUSH1 0x40 DUP1 MLOAD PUSH1 0x0 DUP2 MSTORE PUSH1 0x20 DUP2 ADD SWAP1 SWAP2 MSTORE PUSH3 0x5E5 JUMP JUMPDEST PUSH1 0x0 PUSH3 0x4EC DUP5 DUP7 PUSH3 0xB28 JUMP JUMPDEST SWAP1 POP DUP2 DUP2 GT ISZERO PUSH3 0x4FA JUMPI POP DUP1 JUMPDEST PUSH1 0x0 PUSH3 0x508 DUP7 DUP4 PUSH3 0xB3E JUMP JUMPDEST SWAP1 POP DUP1 PUSH8 0xFFFFFFFFFFFFFFFF DUP2 GT ISZERO PUSH3 0x526 JUMPI PUSH3 0x526 PUSH3 0x92C JUMP JUMPDEST PUSH1 0x40 MLOAD SWAP1 DUP1 DUP3 MSTORE DUP1 PUSH1 0x20 MUL PUSH1 0x20 ADD DUP3 ADD PUSH1 0x40 MSTORE DUP1 ISZERO PUSH3 0x550 JUMPI DUP2 PUSH1 0x20 ADD PUSH1 0x20 DUP3 MUL DUP1 CALLDATASIZE DUP4 CALLDATACOPY ADD SWAP1 POP JUMPDEST POP SWAP4 POP PUSH1 0x0 JUMPDEST DUP2 DUP2 LT ISZERO PUSH3 0x5E0 JUMPI PUSH1 0x1 PUSH3 0x56D DUP3 DUP10 PUSH3 0xB28 JUMP JUMPDEST DUP2 SLOAD DUP2 LT PUSH3 0x580 JUMPI PUSH3 0x580 PUSH3 0xB54 JUMP JUMPDEST SWAP1 PUSH1 0x0 MSTORE PUSH1 0x20 PUSH1 0x0 KECCAK256 ADD PUSH1 0x0 SWAP1 SLOAD SWAP1 PUSH2 0x100 EXP SWAP1 DIV PUSH1 0x1 PUSH1 0x1 PUSH1 0xA0 SHL SUB AND DUP6 DUP3 DUP2 MLOAD DUP2 LT PUSH3 0x5B3 JUMPI PUSH3 0x5B3 PUSH3 0xB54 JUMP JUMPDEST PUSH1 0x1 PUSH1 0x1 PUSH1 0xA0 SHL SUB SWAP1 SWAP3 AND PUSH1 0x20 SWAP3 DUP4 MUL SWAP2 SWAP1 SWAP2 ADD SWAP1 SWAP2 ADD MSTORE DUP1 PUSH3 0x5D7 DUP2 PUSH3 0xB6A JUMP JUMPDEST SWAP2 POP POP PUSH3 0x556 JUMP JUMPDEST POP POP POP POP JUMPDEST SWAP3 SWAP2 POP POP JUMP JUMPDEST PUSH3 0x5F5 PUSH3 0x6A9 JUMP JUMPDEST PUSH3 0x601 PUSH1 0x0 PUSH3 0x6D8 JUMP JUMPDEST JUMP JUMPDEST PUSH1 0x0 PUSH1 0x2 DUP4 DUP4 PUSH1 0x40 MLOAD PUSH3 0x619 SWAP3 SWAP2 SWAP1 PUSH3 0xA17 JUMP JUMPDEST SWAP1 DUP2 MSTORE PUSH1 0x40 MLOAD SWAP1 DUP2 SWAP1 SUB PUSH1 0x20 ADD SWAP1 KECCAK256 SLOAD PUSH1 0x1 PUSH1 0x1 PUSH1 0xA0 SHL SUB AND SWAP1 POP SWAP3 SWAP2 POP POP JUMP JUMPDEST PUSH1 0x1 DUP2 DUP2 SLOAD DUP2 LT PUSH3 0x64B JUMPI PUSH1 0x0 DUP1 REVERT JUMPDEST PUSH1 0x0 SWAP2 DUP3 MSTORE PUSH1 0x20 SWAP1 SWAP2 KECCAK256 ADD SLOAD PUSH1 0x1 PUSH1 0x1 PUSH1 0xA0 SHL SUB AND SWAP1 POP DUP2 JUMP JUMPDEST PUSH3 0x66F PUSH3 0x6A9 JUMP JUMPDEST PUSH1 0x1 PUSH1 0x1 PUSH1 0xA0 SHL SUB DUP2 AND PUSH3 0x69B JUMPI PUSH1 0x40 MLOAD PUSH4 0x1E4FBDF7 PUSH1 0xE0 SHL DUP2 MSTORE PUSH1 0x0 PUSH1 0x4 DUP3 ADD MSTORE PUSH1 0x24 ADD PUSH3 0x2DF JUMP JUMPDEST PUSH3 0x6A6 DUP2 PUSH3 0x6D8 JUMP JUMPDEST POP JUMP JUMPDEST PUSH1 0x0 SLOAD PUSH1 0x1 PUSH1 0x1 PUSH1 0xA0 SHL SUB AND CALLER EQ PUSH3 0x601 JUMPI PUSH1 0x40 MLOAD PUSH4 0x118CDAA7 PUSH1 0xE0 SHL DUP2 MSTORE CALLER PUSH1 0x4 DUP3 ADD MSTORE PUSH1 0x24 ADD PUSH3 0x2DF JUMP JUMPDEST PUSH1 0x0 DUP1 SLOAD PUSH1 0x1 PUSH1 0x1 PUSH1 0xA0 SHL SUB DUP4 DUP2 AND PUSH1 0x1 PUSH1 0x1 PUSH1 0xA0 SHL SUB NOT DUP4 AND DUP2 OR DUP5 SSTORE PUSH1 0x40 MLOAD SWAP2 SWAP1 SWAP3 AND SWAP3 DUP4 SWAP2 PUSH32 0x8BE0079C531659141344CD1FD0A4F28419497F9722A3DAAFE3B4186F6B6457E0 SWAP2 SWAP1 LOG3 POP POP JUMP JUMPDEST PUSH2 0x1255 DUP1 PUSH3 0xB87 DUP4 CODECOPY ADD SWAP1 JUMP JUMPDEST PUSH1 0x0 PUSH1 0x20 DUP3 DUP5 SUB SLT ISZERO PUSH3 0x749 JUMPI PUSH1 0x0 DUP1 REVERT JUMPDEST DUP2 CALLDATALOAD PUSH1 0x1 PUSH1 0x1 PUSH1 0xA0 SHL SUB DUP2 AND DUP2 EQ PUSH3 0x761 JUMPI PUSH1 0x0 DUP1 REVERT JUMPDEST SWAP4 SWAP3 POP POP POP JUMP JUMPDEST PUSH1 0x0 DUP1 DUP4 PUSH1 0x1F DUP5 ADD SLT PUSH3 0x77B JUMPI PUSH1 0x0 DUP1 REVERT JUMPDEST POP DUP2 CALLDATALOAD PUSH8 0xFFFFFFFFFFFFFFFF DUP2 GT ISZERO PUSH3 0x794 JUMPI PUSH1 0x0 DUP1 REVERT JUMPDEST PUSH1 0x20 DUP4 ADD SWAP2 POP DUP4 PUSH1 0x20 DUP3 DUP6 ADD ADD GT ISZERO PUSH3 0x7AD JUMPI PUSH1 0x0 DUP1 REVERT JUMPDEST SWAP3 POP SWAP3 SWAP1 POP JUMP JUMPDEST PUSH1 0x0 DUP1 PUSH1 0x0 DUP1 PUSH1 0x0 DUP1 PUSH1 0x0 PUSH1 0x80 DUP9 DUP11 SUB SLT ISZERO PUSH3 0x7D0 JUMPI PUSH1 0x0 DUP1 REVERT JUMPDEST DUP8 CALLDATALOAD PUSH8 0xFFFFFFFFFFFFFFFF DUP1 DUP3 GT ISZERO PUSH3 0x7E9 JUMPI PUSH1 0x0 DUP1 REVERT JUMPDEST PUSH3 0x7F7 DUP12 DUP4 DUP13 ADD PUSH3 0x768 JUMP JUMPDEST SWAP1 SWAP10 POP SWAP8 POP PUSH1 0x20 DUP11 ADD CALLDATALOAD SWAP2 POP DUP1 DUP3 GT ISZERO PUSH3 0x811 JUMPI PUSH1 0x0 DUP1 REVERT JUMPDEST PUSH3 0x81F DUP12 DUP4 DUP13 ADD PUSH3 0x768 JUMP JUMPDEST SWAP1 SWAP8 POP SWAP6 POP PUSH1 0x40 DUP11 ADD CALLDATALOAD SWAP2 POP PUSH1 0xFF DUP3 AND DUP3 EQ PUSH3 0x83B JUMPI PUSH1 0x0 DUP1 REVERT JUMPDEST SWAP1 SWAP4 POP PUSH1 0x60 DUP10 ADD CALLDATALOAD SWAP1 DUP1 DUP3 GT ISZERO PUSH3 0x852 JUMPI PUSH1 0x0 DUP1 REVERT JUMPDEST POP PUSH3 0x861 DUP11 DUP3 DUP12 ADD PUSH3 0x768 JUMP JUMPDEST SWAP9 SWAP12 SWAP8 SWAP11 POP SWAP6 SWAP9 POP SWAP4 SWAP7 SWAP3 SWAP6 SWAP3 SWAP4 POP POP POP JUMP JUMPDEST PUSH1 0x20 DUP1 DUP3 MSTORE DUP3 MLOAD DUP3 DUP3 ADD DUP2 SWAP1 MSTORE PUSH1 0x0 SWAP2 SWAP1 DUP5 DUP3 ADD SWAP1 PUSH1 0x40 DUP6 ADD SWAP1 DUP5 JUMPDEST DUP2 DUP2 LT ISZERO PUSH3 0x8B7 JUMPI DUP4 MLOAD PUSH1 0x1 PUSH1 0x1 PUSH1 0xA0 SHL SUB AND DUP4 MSTORE SWAP3 DUP5 ADD SWAP3 SWAP2 DUP5 ADD SWAP2 PUSH1 0x1 ADD PUSH3 0x890 JUMP JUMPDEST POP SWAP1 SWAP7 SWAP6 POP POP POP POP POP POP JUMP JUMPDEST PUSH1 0x0 DUP1 PUSH1 0x40 DUP4 DUP6 SUB SLT ISZERO PUSH3 0x8D7 JUMPI PUSH1 0x0 DUP1 REVERT JUMPDEST POP POP DUP1 CALLDATALOAD SWAP3 PUSH1 0x20 SWAP1 SWAP2 ADD CALLDATALOAD SWAP2 POP JUMP JUMPDEST PUSH1 0x0 DUP1 PUSH1 0x20 DUP4 DUP6 SUB SLT ISZERO PUSH3 0x8FA JUMPI PUSH1 0x0 DUP1 REVERT JUMPDEST DUP3 CALLDATALOAD PUSH8 0xFFFFFFFFFFFFFFFF DUP2 GT ISZERO PUSH3 0x912 JUMPI PUSH1 0x0 DUP1 REVERT JUMPDEST PUSH3 0x920 DUP6 DUP3 DUP7 ADD PUSH3 0x768 JUMP JUMPDEST SWAP1 SWAP7 SWAP1 SWAP6 POP SWAP4 POP POP POP POP JUMP JUMPDEST PUSH4 0x4E487B71 PUSH1 0xE0 SHL PUSH1 0x0 MSTORE PUSH1 0x41 PUSH1 0x4 MSTORE PUSH1 0x24 PUSH1 0x0 REVERT JUMPDEST PUSH1 0x0 PUSH1 0x20 DUP3 DUP5 SUB SLT ISZERO PUSH3 0x955 JUMPI PUSH1 0x0 DUP1 REVERT JUMPDEST DUP2 CALLDATALOAD PUSH8 0xFFFFFFFFFFFFFFFF DUP1 DUP3 GT ISZERO PUSH3 0x96E JUMPI PUSH1 0x0 DUP1 REVERT JUMPDEST DUP2 DUP5 ADD SWAP2 POP DUP5 PUSH1 0x1F DUP4 ADD SLT PUSH3 0x983 JUMPI PUSH1 0x0 DUP1 REVERT JUMPDEST DUP2 CALLDATALOAD DUP2 DUP2 GT ISZERO PUSH3 0x998 JUMPI PUSH3 0x998 PUSH3 0x92C JUMP JUMPDEST PUSH1 0x40 MLOAD PUSH1 0x1F DUP3 ADD PUSH1 0x1F NOT SWAP1 DUP2 AND PUSH1 0x3F ADD AND DUP2 ADD SWAP1 DUP4 DUP3 GT DUP2 DUP4 LT OR ISZERO PUSH3 0x9C3 JUMPI PUSH3 0x9C3 PUSH3 0x92C JUMP JUMPDEST DUP2 PUSH1 0x40 MSTORE DUP3 DUP2 MSTORE DUP8 PUSH1 0x20 DUP5 DUP8 ADD ADD GT ISZERO PUSH3 0x9DD JUMPI PUSH1 0x0 DUP1 REVERT JUMPDEST DUP3 PUSH1 0x20 DUP7 ADD PUSH1 0x20 DUP4 ADD CALLDATACOPY PUSH1 0x0 SWAP3 DUP2 ADD PUSH1 0x20 ADD SWAP3 SWAP1 SWAP3 MSTORE POP SWAP6 SWAP5 POP POP POP POP POP JUMP JUMPDEST PUSH1 0x0 PUSH1 0x20 DUP3 DUP5 SUB SLT ISZERO PUSH3 0xA10 JUMPI PUSH1 0x0 DUP1 REVERT JUMPDEST POP CALLDATALOAD SWAP2 SWAP1 POP JUMP JUMPDEST DUP2 DUP4 DUP3 CALLDATACOPY PUSH1 0x0 SWAP2 ADD SWAP1 DUP2 MSTORE SWAP2 SWAP1 POP JUMP JUMPDEST DUP2 DUP4 MSTORE DUP2 DUP2 PUSH1 0x20 DUP6 ADD CALLDATACOPY POP PUSH1 0x0 DUP3 DUP3 ADD PUSH1 0x20 SWAP1 DUP2 ADD SWAP2 SWAP1 SWAP2 MSTORE PUSH1 0x1F SWAP1 SWAP2 ADD PUSH1 0x1F NOT AND SWAP1 SWAP2 ADD ADD SWAP1 JUMP JUMPDEST PUSH1 0xA0 DUP2 MSTORE PUSH1 0x0 PUSH3 0xA66 PUSH1 0xA0 DUP4 ADD DUP11 DUP13 PUSH3 0xA27 JUMP JUMPDEST DUP3 DUP2 SUB PUSH1 0x20 DUP5 ADD MSTORE PUSH3 0xA7B DUP2 DUP10 DUP12 PUSH3 0xA27 JUMP JUMPDEST PUSH1 0xFF DUP9 AND PUSH1 0x40 DUP6 ADD MSTORE PUSH1 0x1 PUSH1 0x1 PUSH1 0xA0 SHL SUB DUP8 AND PUSH1 0x60 DUP6 ADD MSTORE DUP4 DUP2 SUB PUSH1 0x80 DUP6 ADD MSTORE SWAP1 POP PUSH3 0xAAA DUP2 DUP6 DUP8 PUSH3 0xA27 JUMP JUMPDEST SWAP12 SWAP11 POP POP POP POP POP POP POP POP POP POP POP JUMP JUMPDEST PUSH1 0x80 DUP2 MSTORE PUSH1 0x0 PUSH3 0xACF PUSH1 0x80 DUP4 ADD DUP10 DUP12 PUSH3 0xA27 JUMP JUMPDEST DUP3 DUP2 SUB PUSH1 0x20 DUP5 ADD MSTORE PUSH3 0xAE4 DUP2 DUP9 DUP11 PUSH3 0xA27 JUMP JUMPDEST SWAP1 POP PUSH1 0xFF DUP7 AND PUSH1 0x40 DUP5 ADD MSTORE DUP3 DUP2 SUB PUSH1 0x60 DUP5 ADD MSTORE PUSH3 0xB04 DUP2 DUP6 DUP8 PUSH3 0xA27 JUMP JUMPDEST SWAP11 SWAP10 POP POP POP POP POP POP POP POP POP POP JUMP JUMPDEST PUSH4 0x4E487B71 PUSH1 0xE0 SHL PUSH1 0x0 MSTORE PUSH1 0x11 PUSH1 0x4 MSTORE PUSH1 0x24 PUSH1 0x0 REVERT JUMPDEST DUP1 DUP3 ADD DUP1 DUP3 GT ISZERO PUSH3 0x5E5 JUMPI PUSH3 0x5E5 PUSH3 0xB12 JUMP JUMPDEST DUP2 DUP2 SUB DUP2 DUP2 GT ISZERO PUSH3 0x5E5 JUMPI PUSH3 0x5E5 PUSH3 0xB12 JUMP JUMPDEST PUSH4 0x4E487B71 PUSH1 0xE0 SHL PUSH1 0x0 MSTORE PUSH1 0x32 PUSH1 0x4 MSTORE PUSH1 0x24 PUSH1 0x0 REVERT JUMPDEST PUSH1 0x0 PUSH1 0x1 DUP3 ADD PUSH3 0xB7F JUMPI PUSH3 0xB7F PUSH3 0xB12 JUMP JUMPDEST POP PUSH1 0x1 ADD SWAP1 JUMP INVALID PUSH1 0xA0 PUSH1 0x40 MSTORE CALLVALUE DUP1 ISZERO PUSH3 0x11 JUMPI PUSH1 0x0 DUP1 REVERT JUMPDEST POP PUSH1 0x40 MLOAD PUSH3 0x1255 CODESIZE SUB DUP1 PUSH3 0x1255 DUP4 CODECOPY DUP2 ADD PUSH1 0x40 DUP2 SWAP1 MSTORE PUSH3 0x34 SWAP2 PUSH3 0x1CA JUMP JUMPDEST DUP2 DUP6 DUP6 PUSH1 0x3 PUSH3 0x45 DUP4 DUP3 PUSH3 0x326 JUMP JUMPDEST POP PUSH1 0x4 PUSH3 0x54 DUP3 DUP3 PUSH3 0x326 JUMP JUMPDEST POP POP POP PUSH1 0x1 PUSH1 0x1 PUSH1 0xA0 SHL SUB DUP2 AND PUSH3 0x86 JUMPI PUSH1 0x40 MLOAD PUSH4 0x1E4FBDF7 PUSH1 0xE0 SHL DUP2 MSTORE PUSH1 0x0 PUSH1 0x4 DUP3 ADD MSTORE PUSH1 0x24 ADD PUSH1 0x40 MLOAD DUP1 SWAP2 SUB SWAP1 REVERT JUMPDEST PUSH3 0x91 DUP2 PUSH3 0xB3 JUMP JUMPDEST POP PUSH1 0xFF DUP4 AND PUSH1 0x80 MSTORE PUSH1 0x6 PUSH3 0xA7 DUP3 DUP3 PUSH3 0x326 JUMP JUMPDEST POP POP POP POP POP POP PUSH3 0x3F2 JUMP JUMPDEST PUSH1 0x5 DUP1 SLOAD PUSH1 0x1 PUSH1 0x1 PUSH1 0xA0 SHL SUB DUP4 DUP2 AND PUSH1 0x1 PUSH1 0x1 PUSH1 0xA0 SHL SUB NOT DUP4 AND DUP2 OR SWAP1 SWAP4 SSTORE PUSH1 0x40 MLOAD SWAP2 AND SWAP2 SWAP1 DUP3 SWAP1 PUSH32 0x8BE0079C531659141344CD1FD0A4F28419497F9722A3DAAFE3B4186F6B6457E0 SWAP1 PUSH1 0x0 SWAP1 LOG3 POP POP JUMP JUMPDEST PUSH4 0x4E487B71 PUSH1 0xE0 SHL PUSH1 0x0 MSTORE PUSH1 0x41 PUSH1 0x4 MSTORE PUSH1 0x24 PUSH1 0x0 REVERT JUMPDEST PUSH1 0x0 DUP3 PUSH1 0x1F DUP4 ADD SLT PUSH3 0x12D JUMPI PUSH1 0x0 DUP1 REVERT JUMPDEST DUP2 MLOAD PUSH1 0x1 PUSH1 0x1 PUSH1 0x40 SHL SUB DUP1 DUP3 GT ISZERO PUSH3 0x14A JUMPI PUSH3 0x14A PUSH3 0x105 JUMP JUMPDEST PUSH1 0x40 MLOAD PUSH1 0x1F DUP4 ADD PUSH1 0x1F NOT SWAP1 DUP2 AND PUSH1 0x3F ADD AND DUP2 ADD SWAP1 DUP3 DUP3 GT DUP2 DUP4 LT OR ISZERO PUSH3 0x175 JUMPI PUSH3 0x175 PUSH3 0x105 JUMP JUMPDEST DUP2 PUSH1 0x40 MSTORE DUP4 DUP2 MSTORE PUSH1 0x20 SWAP3 POP DUP7 DUP4 DUP6 DUP9 ADD ADD GT ISZERO PUSH3 0x192 JUMPI PUSH1 0x0 DUP1 REVERT JUMPDEST PUSH1 0x0 SWAP2 POP JUMPDEST DUP4 DUP3 LT ISZERO PUSH3 0x1B6 JUMPI DUP6 DUP3 ADD DUP4 ADD MLOAD DUP2 DUP4 ADD DUP5 ADD MSTORE SWAP1 DUP3 ADD SWAP1 PUSH3 0x197 JUMP JUMPDEST PUSH1 0x0 SWAP4 DUP2 ADD SWAP1 SWAP3 ADD SWAP3 SWAP1 SWAP3 MSTORE SWAP5 SWAP4 POP POP POP POP JUMP JUMPDEST PUSH1 0x0 DUP1 PUSH1 0x0 DUP1 PUSH1 0x0 PUSH1 0xA0 DUP7 DUP9 SUB SLT ISZERO PUSH3 0x1E3 JUMPI PUSH1 0x0 DUP1 REVERT JUMPDEST DUP6 MLOAD PUSH1 0x1 PUSH1 0x1 PUSH1 0x40 SHL SUB DUP1 DUP3 GT ISZERO PUSH3 0x1FB JUMPI PUSH1 0x0 DUP1 REVERT JUMPDEST PUSH3 0x209 DUP10 DUP4 DUP11 ADD PUSH3 0x11B JUMP JUMPDEST SWAP7 POP PUSH1 0x20 DUP9 ADD MLOAD SWAP2 POP DUP1 DUP3 GT ISZERO PUSH3 0x220 JUMPI PUSH1 0x0 DUP1 REVERT JUMPDEST PUSH3 0x22E DUP10 DUP4 DUP11 ADD PUSH3 0x11B JUMP JUMPDEST SWAP6 POP PUSH1 0x40 DUP9 ADD MLOAD SWAP2 POP PUSH1 0xFF DUP3 AND DUP3 EQ PUSH3 0x247 JUMPI PUSH1 0x0 DUP1 REVERT JUMPDEST PUSH1 0x60 DUP9 ADD MLOAD SWAP2 SWAP5 POP PUSH1 0x1 PUSH1 0x1 PUSH1 0xA0 SHL SUB DUP3 AND DUP3 EQ PUSH3 0x265 JUMPI PUSH1 0x0 DUP1 REVERT JUMPDEST PUSH1 0x80 DUP9 ADD MLOAD SWAP2 SWAP4 POP DUP1 DUP3 GT ISZERO PUSH3 0x27B JUMPI PUSH1 0x0 DUP1 REVERT JUMPDEST POP PUSH3 0x28A DUP9 DUP3 DUP10 ADD PUSH3 0x11B JUMP JUMPDEST SWAP2 POP POP SWAP3 SWAP6 POP SWAP3 SWAP6 SWAP1 SWAP4 POP JUMP JUMPDEST PUSH1 0x1 DUP2 DUP2 SHR SWAP1 DUP3 AND DUP1 PUSH3 0x2AC JUMPI PUSH1 0x7F DUP3 AND SWAP2 POP JUMPDEST PUSH1 0x20 DUP3 LT DUP2 SUB PUSH3 0x2CD JUMPI PUSH4 0x4E487B71 PUSH1 0xE0 SHL PUSH1 0x0 MSTORE PUSH1 0x22 PUSH1 0x4 MSTORE PUSH1 0x24 PUSH1 0x0 REVERT JUMPDEST POP SWAP2 SWAP1 POP JUMP JUMPDEST PUSH1 0x1F DUP3 GT ISZERO PUSH3 0x321 JUMPI PUSH1 0x0 DUP2 DUP2 MSTORE PUSH1 0x20 DUP2 KECCAK256 PUSH1 0x1F DUP6 ADD PUSH1 0x5 SHR DUP2 ADD PUSH1 0x20 DUP7 LT ISZERO PUSH3 0x2FC JUMPI POP DUP1 JUMPDEST PUSH1 0x1F DUP6 ADD PUSH1 0x5 SHR DUP3 ADD SWAP2 POP JUMPDEST DUP2 DUP2 LT ISZERO PUSH3 0x31D JUMPI DUP3 DUP2 SSTORE PUSH1 0x1 ADD PUSH3 0x308 JUMP JUMPDEST POP POP POP JUMPDEST POP POP POP JUMP JUMPDEST DUP2 MLOAD PUSH1 0x1 PUSH1 0x1 PUSH1 0x40 SHL SUB DUP2 GT ISZERO PUSH3 0x342 JUMPI PUSH3 0x342 PUSH3 0x105 JUMP JUMPDEST PUSH3 0x35A DUP2 PUSH3 0x353 DUP5 SLOAD PUSH3 0x297 JUMP JUMPDEST DUP5 PUSH3 0x2D3 JUMP JUMPDEST PUSH1 0x20 DUP1 PUSH1 0x1F DUP4 GT PUSH1 0x1 DUP2 EQ PUSH3 0x392 JUMPI PUSH1 0x0 DUP5 ISZERO PUSH3 0x379 JUMPI POP DUP6 DUP4 ADD MLOAD JUMPDEST PUSH1 0x0 NOT PUSH1 0x3 DUP7 SWAP1 SHL SHR NOT AND PUSH1 0x1 DUP6 SWAP1 SHL OR DUP6 SSTORE PUSH3 0x31D JUMP JUMPDEST PUSH1 0x0 DUP6 DUP2 MSTORE PUSH1 0x20 DUP2 KECCAK256 PUSH1 0x1F NOT DUP7 AND SWAP2 JUMPDEST DUP3 DUP2 LT ISZERO PUSH3 0x3C3 JUMPI DUP9 DUP7 ADD MLOAD DUP3 SSTORE SWAP5 DUP5 ADD SWAP5 PUSH1 0x1 SWAP1 SWAP2 ADD SWAP1 DUP5 ADD PUSH3 0x3A2 JUMP JUMPDEST POP DUP6 DUP3 LT ISZERO PUSH3 0x3E2 JUMPI DUP8 DUP6 ADD MLOAD PUSH1 0x0 NOT PUSH1 0x3 DUP9 SWAP1 SHL PUSH1 0xF8 AND SHR NOT AND DUP2 SSTORE JUMPDEST POP POP POP POP POP PUSH1 0x1 SWAP1 DUP2 SHL ADD SWAP1 SSTORE POP JUMP JUMPDEST PUSH1 0x80 MLOAD PUSH2 0xE47 PUSH3 0x40E PUSH1 0x0 CODECOPY PUSH1 0x0 PUSH2 0x1D1 ADD MSTORE PUSH2 0xE47 PUSH1 0x0 RETURN INVALID PUSH1 0x80 PUSH1 0x40 MSTORE CALLVALUE DUP1 ISZERO PUSH2 0x10 JUMPI PUSH1 0x0 DUP1 REVERT JUMPDEST POP PUSH1 0x4 CALLDATASIZE LT PUSH2 0x142 JUMPI PUSH1 0x0 CALLDATALOAD PUSH1 0xE0 SHR DUP1 PUSH4 0x70A08231 GT PUSH2 0xB8 JUMPI DUP1 PUSH4 0x8DA5CB5B GT PUSH2 0x7C JUMPI DUP1 PUSH4 0x8DA5CB5B EQ PUSH2 0x29A JUMPI DUP1 PUSH4 0x95D89B41 EQ PUSH2 0x2B5 JUMPI DUP1 PUSH4 0xA9059CBB EQ PUSH2 0x2BD JUMPI DUP1 PUSH4 0xD6B8DE93 EQ PUSH2 0x2D0 JUMPI DUP1 PUSH4 0xDD62ED3E EQ PUSH2 0x2E3 JUMPI DUP1 PUSH4 0xF2FDE38B EQ PUSH2 0x31C JUMPI PUSH1 0x0 DUP1 REVERT JUMPDEST DUP1 PUSH4 0x70A08231 EQ PUSH2 0x23B JUMPI DUP1 PUSH4 0x715018A6 EQ PUSH2 0x264 JUMPI DUP1 PUSH4 0x79CC6790 EQ PUSH2 0x26C JUMPI DUP1 PUSH4 0x7CA48513 EQ PUSH2 0x27F JUMPI DUP1 PUSH4 0x8456CB59 EQ PUSH2 0x292 JUMPI PUSH1 0x0 DUP1 REVERT JUMPDEST DUP1 PUSH4 0x23B872DD GT PUSH2 0x10A JUMPI DUP1 PUSH4 0x23B872DD EQ PUSH2 0x1B7 JUMPI DUP1 PUSH4 0x313CE567 EQ PUSH2 0x1CA JUMPI DUP1 PUSH4 0x3F4BA83A EQ PUSH2 0x1FB JUMPI DUP1 PUSH4 0x40C10F19 EQ PUSH2 0x203 JUMPI DUP1 PUSH4 0x42966C68 EQ PUSH2 0x216 JUMPI DUP1 PUSH4 0x5C975ABB EQ PUSH2 0x229 JUMPI PUSH1 0x0 DUP1 REVERT JUMPDEST DUP1 PUSH4 0x6FDDE03 EQ PUSH2 0x147 JUMPI DUP1 PUSH4 0x91273A7 EQ PUSH2 0x165 JUMPI DUP1 PUSH4 0x95EA7B3 EQ PUSH2 0x17A JUMPI DUP1 PUSH4 0x12F33A40 EQ PUSH2 0x19D JUMPI DUP1 PUSH4 0x18160DDD EQ PUSH2 0x1A5 JUMPI JUMPDEST PUSH1 0x0 DUP1 REVERT JUMPDEST PUSH2 0x14F PUSH2 0x32F JUMP JUMPDEST PUSH1 0x40 MLOAD PUSH2 0x15C SWAP2 SWAP1 PUSH2 0xB53 JUMP JUMPDEST PUSH1 0x40 MLOAD DUP1 SWAP2 SUB SWAP1 RETURN JUMPDEST PUSH2 0x178 PUSH2 0x173 CALLDATASIZE PUSH1 0x4 PUSH2 0xBEA JUMP JUMPDEST PUSH2 0x3C1 JUMP JUMPDEST STOP JUMPDEST PUSH2 0x18D PUSH2 0x188 CALLDATASIZE PUSH1 0x4 PUSH2 0xC52 JUMP JUMPDEST PUSH2 0x41D JUMP JUMPDEST PUSH1 0x40 MLOAD SWAP1 ISZERO ISZERO DUP2 MSTORE PUSH1 0x20 ADD PUSH2 0x15C JUMP JUMPDEST PUSH2 0x14F PUSH2 0x437 JUMP JUMPDEST PUSH1 0x2 SLOAD JUMPDEST PUSH1 0x40 MLOAD SWAP1 DUP2 MSTORE PUSH1 0x20 ADD PUSH2 0x15C JUMP JUMPDEST PUSH2 0x18D PUSH2 0x1C5 CALLDATASIZE PUSH1 0x4 PUSH2 0xC7C JUMP JUMPDEST PUSH2 0x4C5 JUMP JUMPDEST PUSH1 0x40 MLOAD PUSH1 0xFF PUSH32 0x0 AND DUP2 MSTORE PUSH1 0x20 ADD PUSH2 0x15C JUMP JUMPDEST PUSH2 0x178 PUSH2 0x4E9 JUMP JUMPDEST PUSH2 0x178 PUSH2 0x211 CALLDATASIZE PUSH1 0x4 PUSH2 0xC52 JUMP JUMPDEST PUSH2 0x4FB JUMP JUMPDEST PUSH2 0x178 PUSH2 0x224 CALLDATASIZE PUSH1 0x4 PUSH2 0xCB8 JUMP JUMPDEST PUSH2 0x519 JUMP JUMPDEST PUSH1 0x5 SLOAD PUSH1 0x1 PUSH1 0xA0 SHL SWAP1 DIV PUSH1 0xFF AND PUSH2 0x18D JUMP JUMPDEST PUSH2 0x1A9 PUSH2 0x249 CALLDATASIZE PUSH1 0x4 PUSH2 0xCD1 JUMP JUMPDEST PUSH1 0x1 PUSH1 0x1 PUSH1 0xA0 SHL SUB AND PUSH1 0x0 SWAP1 DUP2 MSTORE PUSH1 0x20 DUP2 SWAP1 MSTORE PUSH1 0x40 SWAP1 KECCAK256 SLOAD SWAP1 JUMP JUMPDEST PUSH2 0x178 PUSH2 0x526 JUMP JUMPDEST PUSH2 0x178 PUSH2 0x27A CALLDATASIZE PUSH1 0x4 PUSH2 0xC52 JUMP JUMPDEST PUSH2 0x538 JUMP JUMPDEST PUSH2 0x178 PUSH2 0x28D CALLDATASIZE PUSH1 0x4 PUSH2 0xCF3 JUMP JUMPDEST PUSH2 0x54D JUMP JUMPDEST PUSH2 0x178 PUSH2 0x5B2 JUMP JUMPDEST PUSH1 0x5 SLOAD PUSH1 0x40 MLOAD PUSH1 0x1 PUSH1 0x1 PUSH1 0xA0 SHL SUB SWAP1 SWAP2 AND DUP2 MSTORE PUSH1 0x20 ADD PUSH2 0x15C JUMP JUMPDEST PUSH2 0x14F PUSH2 0x5C2 JUMP JUMPDEST PUSH2 0x18D PUSH2 0x2CB CALLDATASIZE PUSH1 0x4 PUSH2 0xC52 JUMP JUMPDEST PUSH2 0x5D1 JUMP JUMPDEST PUSH2 0x178 PUSH2 0x2DE CALLDATASIZE PUSH1 0x4 PUSH2 0xCF3 JUMP JUMPDEST PUSH2 0x5DF JUMP JUMPDEST PUSH2 0x1A9 PUSH2 0x2F1 CALLDATASIZE PUSH1 0x4 PUSH2 0xD4D JUMP JUMPDEST PUSH1 0x1 PUSH1 0x1 PUSH1 0xA0 SHL SUB SWAP2 DUP3 AND PUSH1 0x0 SWAP1 DUP2 MSTORE PUSH1 0x1 PUSH1 0x20 SWAP1 DUP2 MSTORE PUSH1 0x40 DUP1 DUP4 KECCAK256 SWAP4 SWAP1 SWAP5 AND DUP3 MSTORE SWAP2 SWAP1 SWAP2 MSTORE KECCAK256 SLOAD SWAP1 JUMP JUMPDEST PUSH2 0x178 PUSH2 0x32A CALLDATASIZE PUSH1 0x4 PUSH2 0xCD1 JUMP JUMPDEST PUSH2 0x639 JUMP JUMPDEST PUSH1 0x60 PUSH1 0x3 DUP1 SLOAD PUSH2 0x33E SWAP1 PUSH2 0xD80 JUMP JUMPDEST DUP1 PUSH1 0x1F ADD PUSH1 0x20 DUP1 SWAP2 DIV MUL PUSH1 0x20 ADD PUSH1 0x40 MLOAD SWAP1 DUP2 ADD PUSH1 0x40 MSTORE DUP1 SWAP3 SWAP2 SWAP1 DUP2 DUP2 MSTORE PUSH1 0x20 ADD DUP3 DUP1 SLOAD PUSH2 0x36A SWAP1 PUSH2 0xD80 JUMP JUMPDEST DUP1 ISZERO PUSH2 0x3B7 JUMPI DUP1 PUSH1 0x1F LT PUSH2 0x38C JUMPI PUSH2 0x100 DUP1 DUP4 SLOAD DIV MUL DUP4 MSTORE SWAP2 PUSH1 0x20 ADD SWAP2 PUSH2 0x3B7 JUMP JUMPDEST DUP3 ADD SWAP2 SWAP1 PUSH1 0x0 MSTORE PUSH1 0x20 PUSH1 0x0 KECCAK256 SWAP1 JUMPDEST DUP2 SLOAD DUP2 MSTORE SWAP1 PUSH1 0x1 ADD SWAP1 PUSH1 0x20 ADD DUP1 DUP4 GT PUSH2 0x39A JUMPI DUP3 SWAP1 SUB PUSH1 0x1F AND DUP3 ADD SWAP2 JUMPDEST POP POP POP POP POP SWAP1 POP SWAP1 JUMP JUMPDEST PUSH2 0x3C9 PUSH2 0x679 JUMP JUMPDEST PUSH2 0x3D3 CALLER DUP5 PUSH2 0x6A4 JUMP JUMPDEST CALLER PUSH1 0x1 PUSH1 0x1 PUSH1 0xA0 SHL SUB AND PUSH32 0xFAD31924D655455395C87544C8AA1FFDB5A7505A22A3C2E03F28003B6556A75F DUP5 DUP5 DUP5 PUSH1 0x40 MLOAD PUSH2 0x410 SWAP4 SWAP3 SWAP2 SWAP1 PUSH2 0xDBA JUMP JUMPDEST PUSH1 0x40 MLOAD DUP1 SWAP2 SUB SWAP1 LOG2 POP POP POP JUMP JUMPDEST PUSH1 0x0 CALLER PUSH2 0x42B DUP2 DUP6 DUP6 PUSH2 0x6DA JUMP JUMPDEST PUSH1 0x1 SWAP2 POP POP JUMPDEST SWAP3 SWAP2 POP POP JUMP JUMPDEST PUSH1 0x6 DUP1 SLOAD PUSH2 0x444 SWAP1 PUSH2 0xD80 JUMP JUMPDEST DUP1 PUSH1 0x1F ADD PUSH1 0x20 DUP1 SWAP2 DIV MUL PUSH1 0x20 ADD PUSH1 0x40 MLOAD SWAP1 DUP2 ADD PUSH1 0x40 MSTORE DUP1 SWAP3 SWAP2 SWAP1 DUP2 DUP2 MSTORE PUSH1 0x20 ADD DUP3 DUP1 SLOAD PUSH2 0x470 SWAP1 PUSH2 0xD80 JUMP JUMPDEST DUP1 ISZERO PUSH2 0x4BD JUMPI DUP1 PUSH1 0x1F LT PUSH2 0x492 JUMPI PUSH2 0x100 DUP1 DUP4 SLOAD DIV MUL DUP4 MSTORE SWAP2 PUSH1 0x20 ADD SWAP2 PUSH2 0x4BD JUMP JUMPDEST DUP3 ADD SWAP2 SWAP1 PUSH1 0x0 MSTORE PUSH1 0x20 PUSH1 0x0 KECCAK256 SWAP1 JUMPDEST DUP2 SLOAD DUP2 MSTORE SWAP1 PUSH1 0x1 ADD SWAP1 PUSH1 0x20 ADD DUP1 DUP4 GT PUSH2 0x4A0 JUMPI DUP3 SWAP1 SUB PUSH1 0x1F AND DUP3 ADD SWAP2 JUMPDEST POP POP POP POP POP DUP2 JUMP JUMPDEST PUSH1 0x0 CALLER PUSH2 0x4D3 DUP6 DUP3 DUP6 PUSH2 0x6EC JUMP JUMPDEST PUSH2 0x4DE DUP6 DUP6 DUP6 PUSH2 0x76B JUMP JUMPDEST POP PUSH1 0x1 SWAP5 SWAP4 POP POP POP POP JUMP JUMPDEST PUSH2 0x4F1 PUSH2 0x7CA JUMP JUMPDEST PUSH2 0x4F9 PUSH2 0x7F7 JUMP JUMPDEST JUMP JUMPDEST PUSH2 0x503 PUSH2 0x7CA JUMP JUMPDEST PUSH2 0x50B PUSH2 0x679 JUMP JUMPDEST PUSH2 0x515 DUP3 DUP3 PUSH2 0x84C JUMP JUMPDEST POP POP JUMP JUMPDEST PUSH2 0x523 CALLER DUP3 PUSH2 0x6A4 JUMP JUMPDEST POP JUMP JUMPDEST PUSH2 0x52E PUSH2 0x7CA JUMP JUMPDEST PUSH2 0x4F9 PUSH1 0x0 PUSH2 0x882 JUMP JUMPDEST PUSH2 0x543 DUP3 CALLER DUP4 PUSH2 0x6EC JUMP JUMPDEST PUSH2 0x515 DUP3 DUP3 PUSH2 0x6A4 JUMP JUMPDEST PUSH2 0x555 PUSH2 0x7CA JUMP JUMPDEST PUSH2 0x55D PUSH2 0x679 JUMP JUMPDEST PUSH2 0x567 DUP5 DUP5 PUSH2 0x84C JUMP JUMPDEST DUP4 PUSH1 0x1 PUSH1 0x1 PUSH1 0xA0 SHL SUB AND PUSH32 0x9D89E36EADF856DB0AD9FFB5A569E07F95634DDDD9501141ECF04820484AD0DC DUP5 DUP5 DUP5 PUSH1 0x40 MLOAD PUSH2 0x5A4 SWAP4 SWAP3 SWAP2 SWAP1 PUSH2 0xDBA JUMP JUMPDEST PUSH1 0x40 MLOAD DUP1 SWAP2 SUB SWAP1 LOG2 POP POP POP POP JUMP JUMPDEST PUSH2 0x5BA PUSH2 0x7CA JUMP JUMPDEST PUSH2 0x4F9 PUSH2 0x8D4 JUMP JUMPDEST PUSH1 0x60 PUSH1 0x4 DUP1 SLOAD PUSH2 0x33E SWAP1 PUSH2 0xD80 JUMP JUMPDEST PUSH1 0x0 CALLER PUSH2 0x42B DUP2 DUP6 DUP6 PUSH2 0x76B JUMP JUMPDEST PUSH2 0x5E7 PUSH2 0x679 JUMP JUMPDEST PUSH2 0x5F2 DUP5 CALLER DUP6 PUSH2 0x6EC JUMP JUMPDEST PUSH2 0x5FC DUP5 DUP5 PUSH2 0x6A4 JUMP JUMPDEST DUP4 PUSH1 0x1 PUSH1 0x1 PUSH1 0xA0 SHL SUB AND PUSH32 0xFAD31924D655455395C87544C8AA1FFDB5A7505A22A3C2E03F28003B6556A75F DUP5 DUP5 DUP5 PUSH1 0x40 MLOAD PUSH2 0x5A4 SWAP4 SWAP3 SWAP2 SWAP1 PUSH2 0xDBA JUMP JUMPDEST PUSH2 0x641 PUSH2 0x7CA JUMP JUMPDEST PUSH1 0x1 PUSH1 0x1 PUSH1 0xA0 SHL SUB DUP2 AND PUSH2 0x670 JUMPI PUSH1 0x40 MLOAD PUSH4 0x1E4FBDF7 PUSH1 0xE0 SHL DUP2 MSTORE PUSH1 0x0 PUSH1 0x4 DUP3 ADD MSTORE PUSH1 0x24 ADD JUMPDEST PUSH1 0x40 MLOAD DUP1 SWAP2 SUB SWAP1 REVERT JUMPDEST PUSH2 0x523 DUP2 PUSH2 0x882 JUMP JUMPDEST PUSH1 0x5 SLOAD PUSH1 0x1 PUSH1 0xA0 SHL SWAP1 DIV PUSH1 0xFF AND ISZERO PUSH2 0x4F9 JUMPI PUSH1 0x40 MLOAD PUSH4 0xD93C0665 PUSH1 0xE0 SHL DUP2 MSTORE PUSH1 0x4 ADD PUSH1 0x40 MLOAD DUP1 SWAP2 SUB SWAP1 REVERT JUMPDEST PUSH1 0x1 PUSH1 0x1 PUSH1 0xA0 SHL SUB DUP3 AND PUSH2 0x6CE JUMPI PUSH1 0x40 MLOAD PUSH4 0x4B637E8F PUSH1 0xE1 SHL DUP2 MSTORE PUSH1 0x0 PUSH1 0x4 DUP3 ADD MSTORE PUSH1 0x24 ADD PUSH2 0x667 JUMP JUMPDEST PUSH2 0x515 DUP3 PUSH1 0x0 DUP4 PUSH2 0x917 JUMP JUMPDEST PUSH2 0x6E7 DUP4 DUP4 DUP4 PUSH1 0x1 PUSH2 0x92A JUMP JUMPDEST POP POP POP JUMP JUMPDEST PUSH1 0x1 PUSH1 0x1 PUSH1 0xA0 SHL SUB DUP4 DUP2 AND PUSH1 0x0 SWAP1 DUP2 MSTORE PUSH1 0x1 PUSH1 0x20 SWAP1 DUP2 MSTORE PUSH1 0x40 DUP1 DUP4 KECCAK256 SWAP4 DUP7 AND DUP4 MSTORE SWAP3 SWAP1 MSTORE KECCAK256 SLOAD PUSH1 0x0 NOT DUP2 LT ISZERO PUSH2 0x765 JUMPI DUP2 DUP2 LT ISZERO PUSH2 0x756 JUMPI PUSH1 0x40 MLOAD PUSH4 0x7DC7A0D9 PUSH1 0xE1 SHL DUP2 MSTORE PUSH1 0x1 PUSH1 0x1 PUSH1 0xA0 SHL SUB DUP5 AND PUSH1 0x4 DUP3 ADD MSTORE PUSH1 0x24 DUP2 ADD DUP3 SWAP1 MSTORE PUSH1 0x44 DUP2 ADD DUP4 SWAP1 MSTORE PUSH1 0x64 ADD PUSH2 0x667 JUMP JUMPDEST PUSH2 0x765 DUP5 DUP5 DUP5 DUP5 SUB PUSH1 0x0 PUSH2 0x92A JUMP JUMPDEST POP POP POP POP JUMP JUMPDEST PUSH1 0x1 PUSH1 0x1 PUSH1 0xA0 SHL SUB DUP4 AND PUSH2 0x795 JUMPI PUSH1 0x40 MLOAD PUSH4 0x4B637E8F PUSH1 0xE1 SHL DUP2 MSTORE PUSH1 0x0 PUSH1 0x4 DUP3 ADD MSTORE PUSH1 0x24 ADD PUSH2 0x667 JUMP JUMPDEST PUSH1 0x1 PUSH1 0x1 PUSH1 0xA0 SHL SUB DUP3 AND PUSH2 0x7BF JUMPI PUSH1 0x40 MLOAD PUSH4 0xEC442F05 PUSH1 0xE0 SHL DUP2 MSTORE PUSH1 0x0 PUSH1 0x4 DUP3 ADD MSTORE PUSH1 0x24 ADD PUSH2 0x667 JUMP JUMPDEST PUSH2 0x6E7 DUP4 DUP4 DUP4 PUSH2 0x917 JUMP JUMPDEST PUSH1 0x5 SLOAD PUSH1 0x1 PUSH1 0x1 PUSH1 0xA0 SHL SUB AND CALLER EQ PUSH2 0x4F9 JUMPI PUSH1 0x40 MLOAD PUSH4 0x118CDAA7 PUSH1 0xE0 SHL DUP2 MSTORE CALLER PUSH1 0x4 DUP3 ADD MSTORE PUSH1 0x24 ADD PUSH2 0x667 JUMP JUMPDEST PUSH2 0x7FF PUSH2 0x9FF JUMP JUMPDEST PUSH1 0x5 DUP1 SLOAD PUSH1 0xFF PUSH1 0xA0 SHL NOT AND SWAP1 SSTORE PUSH32 0x5DB9EE0A495BF2E6FF9C91A7834C1BA4FDD244A5E8AA4E537BD38AEAE4B073AA CALLER JUMPDEST PUSH1 0x40 MLOAD PUSH1 0x1 PUSH1 0x1 PUSH1 0xA0 SHL SUB SWAP1 SWAP2 AND DUP2 MSTORE PUSH1 0x20 ADD PUSH1 0x40 MLOAD DUP1 SWAP2 SUB SWAP1 LOG1 JUMP JUMPDEST PUSH1 0x1 PUSH1 0x1 PUSH1 0xA0 SHL SUB DUP3 AND PUSH2 0x876 JUMPI PUSH1 0x40 MLOAD PUSH4 0xEC442F05 PUSH1 0xE0 SHL DUP2 MSTORE PUSH1 0x0 PUSH1 0x4 DUP3 ADD MSTORE PUSH1 0x24 ADD PUSH2 0x667 JUMP JUMPDEST PUSH2 0x515 PUSH1 0x0 DUP4 DUP4 PUSH2 0x917 JUMP JUMPDEST PUSH1 0x5 DUP1 SLOAD PUSH1 0x1 PUSH1 0x1 PUSH1 0xA0 SHL SUB DUP4 DUP2 AND PUSH1 0x1 PUSH1 0x1 PUSH1 0xA0 SHL SUB NOT DUP4 AND DUP2 OR SWAP1 SWAP4 SSTORE PUSH1 0x40 MLOAD SWAP2 AND SWAP2 SWAP1 DUP3 SWAP1 PUSH32 0x8BE0079C531659141344CD1FD0A4F28419497F9722A3DAAFE3B4186F6B6457E0 SWAP1 PUSH1 0x0 SWAP1 LOG3 POP POP JUMP JUMPDEST PUSH2 0x8DC PUSH2 0x679 JUMP JUMPDEST PUSH1 0x5 DUP1 SLOAD PUSH1 0xFF PUSH1 0xA0 SHL NOT AND PUSH1 0x1 PUSH1 0xA0 SHL OR SWAP1 SSTORE PUSH32 0x62E78CEA01BEE320CD4E420270B5EA74000D11B0C9F74754EBDBFC544B05A258 PUSH2 0x82F CALLER SWAP1 JUMP JUMPDEST PUSH2 0x91F PUSH2 0x679 JUMP JUMPDEST PUSH2 0x6E7 DUP4 DUP4 DUP4 PUSH2 0xA29 JUMP JUMPDEST PUSH1 0x1 PUSH1 0x1 PUSH1 0xA0 SHL SUB DUP5 AND PUSH2 0x954 JUMPI PUSH1 0x40 MLOAD PUSH4 0xE602DF05 PUSH1 0xE0 SHL DUP2 MSTORE PUSH1 0x0 PUSH1 0x4 DUP3 ADD MSTORE PUSH1 0x24 ADD PUSH2 0x667 JUMP JUMPDEST PUSH1 0x1 PUSH1 0x1 PUSH1 0xA0 SHL SUB DUP4 AND PUSH2 0x97E JUMPI PUSH1 0x40 MLOAD PUSH4 0x4A1406B1 PUSH1 0xE1 SHL DUP2 MSTORE PUSH1 0x0 PUSH1 0x4 DUP3 ADD MSTORE PUSH1 0x24 ADD PUSH2 0x667 JUMP JUMPDEST PUSH1 0x1 PUSH1 0x1 PUSH1 0xA0 SHL SUB DUP1 DUP6 AND PUSH1 0x0 SWAP1 DUP2 MSTORE PUSH1 0x1 PUSH1 0x20 SWAP1 DUP2 MSTORE PUSH1 0x40 DUP1 DUP4 KECCAK256 SWAP4 DUP8 AND DUP4 MSTORE SWAP3 SWAP1 MSTORE KECCAK256 DUP3 SWAP1 SSTORE DUP1 ISZERO PUSH2 0x765 JUMPI DUP3 PUSH1 0x1 PUSH1 0x1 PUSH1 0xA0 SHL SUB AND DUP5 PUSH1 0x1 PUSH1 0x1 PUSH1 0xA0 SHL SUB AND PUSH32 0x8C5BE1E5EBEC7D5BD14F71427D1E84F3DD0314C0F7B2291E5B200AC8C7C3B925 DUP5 PUSH1 0x40 MLOAD PUSH2 0x9F1 SWAP2 DUP2 MSTORE PUSH1 0x20 ADD SWAP1 JUMP JUMPDEST PUSH1 0x40 MLOAD DUP1 SWAP2 SUB SWAP1 LOG3 POP POP POP POP JUMP JUMPDEST PUSH1 0x5 SLOAD PUSH1 0x1 PUSH1 0xA0 SHL SWAP1 DIV PUSH1 0xFF AND PUSH2 0x4F9 JUMPI PUSH1 0x40 MLOAD PUSH4 0x8DFC202B PUSH1 0xE0 SHL DUP2 MSTORE PUSH1 0x4 ADD PUSH1 0x40 MLOAD DUP1 SWAP2 SUB SWAP1 REVERT JUMPDEST PUSH1 0x1 PUSH1 0x1 PUSH1 0xA0 SHL SUB DUP4 AND PUSH2 0xA54 JUMPI DUP1 PUSH1 0x2 PUSH1 0x0 DUP3 DUP3 SLOAD PUSH2 0xA49 SWAP2 SWAP1 PUSH2 0xDF0 JUMP JUMPDEST SWAP1 SWAP2 SSTORE POP PUSH2 0xAC6 SWAP1 POP JUMP JUMPDEST PUSH1 0x1 PUSH1 0x1 PUSH1 0xA0 SHL SUB DUP4 AND PUSH1 0x0 SWAP1 DUP2 MSTORE PUSH1 0x20 DUP2 SWAP1 MSTORE PUSH1 0x40 SWAP1 KECCAK256 SLOAD DUP2 DUP2 LT ISZERO PUSH2 0xAA7 JUMPI PUSH1 0x40 MLOAD PUSH4 0x391434E3 PUSH1 0xE2 SHL DUP2 MSTORE PUSH1 0x1 PUSH1 0x1 PUSH1 0xA0 SHL SUB DUP6 AND PUSH1 0x4 DUP3 ADD MSTORE PUSH1 0x24 DUP2 ADD DUP3 SWAP1 MSTORE PUSH1 0x44 DUP2 ADD DUP4 SWAP1 MSTORE PUSH1 0x64 ADD PUSH2 0x667 JUMP JUMPDEST PUSH1 0x1 PUSH1 0x1 PUSH1 0xA0 SHL SUB DUP5 AND PUSH1 0x0 SWAP1 DUP2 MSTORE PUSH1 0x20 DUP2 SWAP1 MSTORE PUSH1 0x40 SWAP1 KECCAK256 SWAP1 DUP3 SWAP1 SUB SWAP1 SSTORE JUMPDEST PUSH1 0x1 PUSH1 0x1 PUSH1 0xA0 SHL SUB DUP3 AND PUSH2 0xAE2 JUMPI PUSH1 0x2 DUP1 SLOAD DUP3 SWAP1 SUB SWAP1 SSTORE PUSH2 0xB01 JUMP JUMPDEST PUSH1 0x1 PUSH1 0x1 PUSH1 0xA0 SHL SUB DUP3 AND PUSH1 0x0 SWAP1 DUP2 MSTORE PUSH1 0x20 DUP2 SWAP1 MSTORE PUSH1 0x40 SWAP1 KECCAK256 DUP1 SLOAD DUP3 ADD SWAP1 SSTORE JUMPDEST DUP2 PUSH1 0x1 PUSH1 0x1 PUSH1 0xA0 SHL SUB AND DUP4 PUSH1 0x1 PUSH1 0x1 PUSH1 0xA0 SHL SUB AND PUSH32 0xDDF252AD1BE2C89B69C2B068FC378DAA952BA7F163C4A11628F55A4DF523B3EF DUP4 PUSH1 0x40 MLOAD PUSH2 0xB46 SWAP2 DUP2 MSTORE PUSH1 0x20 ADD SWAP1 JUMP JUMPDEST PUSH1 0x40 MLOAD DUP1 SWAP2 SUB SWAP1 LOG3 POP POP POP JUMP JUMPDEST PUSH1 0x0 PUSH1 0x20 DUP1 DUP4 MSTORE DUP4 MLOAD DUP1 DUP3 DUP6 ADD MSTORE PUSH1 0x0 JUMPDEST DUP2 DUP2 LT ISZERO PUSH2 0xB80 JUMPI DUP6 DUP2 ADD DUP4 ADD MLOAD DUP6 DUP3 ADD PUSH1 0x40 ADD MSTORE DUP3 ADD PUSH2 0xB64 JUMP JUMPDEST POP PUSH1 0x0 PUSH1 0x40 DUP3 DUP7 ADD ADD MSTORE PUSH1 0x40 PUSH1 0x1F NOT PUSH1 0x1F DUP4 ADD AND DUP6 ADD ADD SWAP3 POP POP POP SWAP3 SWAP2 POP POP JUMP JUMPDEST PUSH1 0x0 DUP1 DUP4 PUSH1 0x1F DUP5 ADD SLT PUSH2 0xBB3 JUMPI PUSH1 0x0 DUP1 REVERT JUMPDEST POP DUP2 CALLDATALOAD PUSH8 0xFFFFFFFFFFFFFFFF DUP2 GT ISZERO PUSH2 0xBCB JUMPI PUSH1 0x0 DUP1 REVERT JUMPDEST PUSH1 0x20 DUP4 ADD SWAP2 POP DUP4 PUSH1 0x20 DUP3 DUP6 ADD ADD GT ISZERO PUSH2 0xBE3 JUMPI PUSH1 0x0 DUP1 REVERT JUMPDEST SWAP3 POP SWAP3 SWAP1 POP JUMP JUMPDEST PUSH1 0x0 DUP1 PUSH1 0x0 PUSH1 0x40 DUP5 DUP7 SUB SLT ISZERO PUSH2 0xBFF JUMPI PUSH1 0x0 DUP1 REVERT JUMPDEST DUP4 CALLDATALOAD SWAP3 POP PUSH1 0x20 DUP5 ADD CALLDATALOAD PUSH8 0xFFFFFFFFFFFFFFFF DUP2 GT ISZERO PUSH2 0xC1D JUMPI PUSH1 0x0 DUP1 REVERT JUMPDEST PUSH2 0xC29 DUP7 DUP3 DUP8 ADD PUSH2 0xBA1 JUMP JUMPDEST SWAP5 SWAP8 SWAP1 SWAP7 POP SWAP4 SWAP5 POP POP POP POP JUMP JUMPDEST DUP1 CALLDATALOAD PUSH1 0x1 PUSH1 0x1 PUSH1 0xA0 SHL SUB DUP2 AND DUP2 EQ PUSH2 0xC4D JUMPI PUSH1 0x0 DUP1 REVERT JUMPDEST SWAP2 SWAP1 POP JUMP JUMPDEST PUSH1 0x0 DUP1 PUSH1 0x40 DUP4 DUP6 SUB SLT ISZERO PUSH2 0xC65 JUMPI PUSH1 0x0 DUP1 REVERT JUMPDEST PUSH2 0xC6E DUP4 PUSH2 0xC36 JUMP JUMPDEST SWAP5 PUSH1 0x20 SWAP4 SWAP1 SWAP4 ADD CALLDATALOAD SWAP4 POP POP POP JUMP JUMPDEST PUSH1 0x0 DUP1 PUSH1 0x0 PUSH1 0x60 DUP5 DUP7 SUB SLT ISZERO PUSH2 0xC91 JUMPI PUSH1 0x0 DUP1 REVERT JUMPDEST PUSH2 0xC9A DUP5 PUSH2 0xC36 JUMP JUMPDEST SWAP3 POP PUSH2 0xCA8 PUSH1 0x20 DUP6 ADD PUSH2 0xC36 JUMP JUMPDEST SWAP2 POP PUSH1 0x40 DUP5 ADD CALLDATALOAD SWAP1 POP SWAP3 POP SWAP3 POP SWAP3 JUMP JUMPDEST PUSH1 0x0 PUSH1 0x20 DUP3 DUP5 SUB SLT ISZERO PUSH2 0xCCA JUMPI PUSH1 0x0 DUP1 REVERT JUMPDEST POP CALLDATALOAD SWAP2 SWAP1 POP JUMP JUMPDEST PUSH1 0x0 PUSH1 0x20 DUP3 DUP5 SUB SLT ISZERO PUSH2 0xCE3 JUMPI PUSH1 0x0 DUP1 REVERT JUMPDEST PUSH2 0xCEC DUP3 PUSH2 0xC36 JUMP JUMPDEST SWAP4 SWAP3 POP POP POP JUMP JUMPDEST PUSH1 0x0 DUP1 PUSH1 0x0 DUP1 PUSH1 0x60 DUP6 DUP8 SUB SLT ISZERO PUSH2 0xD09 JUMPI PUSH1 0x0 DUP1 REVERT JUMPDEST PUSH2 0xD12 DUP6 PUSH2 0xC36 JUMP JUMPDEST SWAP4 POP PUSH1 0x20 DUP6 ADD CALLDATALOAD SWAP3 POP PUSH1 0x40 DUP6 ADD CALLDATALOAD PUSH8 0xFFFFFFFFFFFFFFFF DUP2 GT ISZERO PUSH2 0xD35 JUMPI PUSH1 0x0 DUP1 REVERT JUMPDEST PUSH2 0xD41 DUP8 DUP3 DUP9 ADD PUSH2 0xBA1 JUMP JUMPDEST SWAP6 SWAP9 SWAP5 SWAP8 POP SWAP6 POP POP POP POP JUMP JUMPDEST PUSH1 0x0 DUP1 PUSH1 0x40 DUP4 DUP6 SUB SLT ISZERO PUSH2 0xD60 JUMPI PUSH1 0x0 DUP1 REVERT JUMPDEST PUSH2 0xD69 DUP4 PUSH2 0xC36 JUMP JUMPDEST SWAP2 POP PUSH2 0xD77 PUSH1 0x20 DUP5 ADD PUSH2 0xC36 JUMP JUMPDEST SWAP1 POP SWAP3 POP SWAP3 SWAP1 POP JUMP JUMPDEST PUSH1 0x1 DUP2 DUP2 SHR SWAP1 DUP3 AND DUP1 PUSH2 0xD94 JUMPI PUSH1 0x7F DUP3 AND SWAP2 POP JUMPDEST PUSH1 0x20 DUP3 LT DUP2 SUB PUSH2 0xDB4 JUMPI PUSH4 0x4E487B71 PUSH1 0xE0 SHL PUSH1 0x0 MSTORE PUSH1 0x22 PUSH1 0x4 MSTORE PUSH1 0x24 PUSH1 0x0 REVERT JUMPDEST POP SWAP2 SWAP1 POP JUMP JUMPDEST DUP4 DUP2 MSTORE PUSH1 0x40 PUSH1 0x20 DUP3 ADD MSTORE DUP2 PUSH1 0x40 DUP3 ADD MSTORE DUP2 DUP4 PUSH1 0x60 DUP4 ADD CALLDATACOPY PUSH1 0x0 DUP2 DUP4 ADD PUSH1 0x60 SWAP1 DUP2 ADD SWAP2 SWAP1 SWAP2 MSTORE PUSH1 0x1F SWAP1 SWAP3 ADD PUSH1 0x1F NOT AND ADD ADD SWAP3 SWAP2 POP POP JUMP JUMPDEST DUP1 DUP3 ADD DUP1 DUP3 GT ISZERO PUSH2 0x431 JUMPI PUSH4 0x4E487B71 PUSH1 0xE0 SHL PUSH1 0x0 MSTORE PUSH1 0x11 PUSH1 0x4 MSTORE PUSH1 0x24 PUSH1 0x0 REVERT INVALID LOG2 PUSH5 0x6970667358 0x22 SLT KECCAK256 0xC9 SHL 0xDE DUP3 0xCF 0x4C CALLDATALOAD 0xF9 PUSH8 0x61D71BE6FD8F7996 CODESIZE 0x28 DUP7 PUSH15 0x90398271A88CA829DEE88864736F6C PUSH4 0x43000814 STOP CALLER LOG2 PUSH5 0x6970667358 0x22 SLT KECCAK256 DUP10 PUSH2 0x32A4 0x2C ADDRESS DUP11 DUP14 DUP7 0x29 0xEC 0xD9 SWAP7 0x23 GT STATICCALL 0x4A 0x5C DUP10 0xB3 BYTE 0xAD CALLDATALOAD 0xE7 PUSH4 0x28D08131 DUP1 BASEFEE CALLVALUE PUSH5 0x736F6C6343 STOP ADDMOD EQ STOP CALLER "},"methodIdentifiers":{"createToken(string,string,uint8,string)":"2482ee27","deployedTokens(uint256)":"ec81aadb","getAllTokens()":"2a5c792a","getTokenByMerchant(string)":"74594c86","getTokenCount()":"78a89567","getTokensPaginated(uint256,uint256)":"4238b692","isDeployedToken(address)":"4c1c7ddf","isToken(address)":"19f37361","merchantTokens(string)":"7ed30979","owner()":"8da5cb5b","renounceOwnership()":"715018a6","transferOwnership(address)":"f2fde38b"}}}}}