{
  "_format": "hh-sol-artifact-1",
  "contractName": "TokenFactory",
  "sourceName": "contracts/TokenFactory.sol",
  "abi": [
    {
      "inputs": [],
      "stateMutability": "nonpayable",
      "type": "constructor"
    },
    {
      "inputs": [
        {
          "internalType": "address",
          "name": "owner",
          "type": "address"
        }
      ],
      "name": "OwnableInvalidOwner",
      "type": "error"
    },
    {
      "inputs": [
        {
          "internalType": "address",
          "name": "account",
          "type": "address"
        }
      ],
      "name": "OwnableUnauthorizedAccount",
      "type": "error"
    },
    {
      "anonymous": false,
      "inputs": [
        {
          "indexed": true,
          "internalType": "address",
          "name": "previousOwner",
          "type": "address"
        },
        {
          "indexed": true,
          "internalType": "address",
          "name": "newOwner",
          "type": "address"
        }
      ],
      "name": "OwnershipTransferred",
      "type": "event"
    },
    {
      "anonymous": false,
      "inputs": [
        {
          "indexed": true,
          "internalType": "address",
          "name": "tokenAddress",
          "type": "address"
        },
        {
          "indexed": false,
          "internalType": "string",
          "name": "name",
          "type": "string"
        },
        {
          "indexed": false,
          "internalType": "string",
          "name": "symbol",
          "type": "string"
        },
        {
          "indexed": false,
          "internalType": "uint8",
          "name": "decimals",
          "type": "uint8"
        },
        {
          "indexed": true,
          "internalType": "address",
          "name": "owner",
          "type": "address"
        },
        {
          "indexed": false,
          "internalType": "string",
          "name": "merchantId",
          "type": "string"
        }
      ],
      "name": "TokenCreated",
      "type": "event"
    },
    {
      "inputs": [
        {
          "internalType": "string",
          "name": "name",
          "type": "string"
        },
        {
          "internalType": "string",
          "name": "symbol",
          "type": "string"
        },
        {
          "internalType": "uint8",
          "name": "decimals",
          "type": "uint8"
        },
        {
          "internalType": "string",
          "name": "merchantId",
          "type": "string"
        }
      ],
      "name": "createToken",
      "outputs": [
        {
          "internalType": "address",
          "name": "tokenAddress",
          "type": "address"
        }
      ],
      "stateMutability": "nonpayable",
      "type": "function"
    },
    {
      "inputs": [
        {
          "internalType": "uint256",
          "name": "",
          "type": "uint256"
        }
      ],
      "name": "deployedTokens",
      "outputs": [
        {
          "internalType": "address",
          "name": "",
          "type": "address"
        }
      ],
      "stateMutability": "view",
      "type": "function"
    },
    {
      "inputs": [],
      "name": "getAllTokens",
      "outputs": [
        {
          "internalType": "address[]",
          "name": "",
          "type": "address[]"
        }
      ],
      "stateMutability": "view",
      "type": "function"
    },
    {
      "inputs": [
        {
          "internalType": "string",
          "name": "merchantId",
          "type": "string"
        }
      ],
      "name": "getTokenByMerchant",
      "outputs": [
        {
          "internalType": "address",
          "name": "",
          "type": "address"
        }
      ],
      "stateMutability": "view",
      "type": "function"
    },
    {
      "inputs": [],
      "name": "getTokenCount",
      "outputs": [
        {
          "internalType": "uint256",
          "name": "",
          "type": "uint256"
        }
      ],
      "stateMutability": "view",
      "type": "function"
    },
    {
      "inputs": [
        {
          "internalType": "uint256",
          "name": "offset",
          "type": "uint256"
        },
        {
          "internalType": "uint256",
          "name": "limit",
          "type": "uint256"
        }
      ],
      "name": "getTokensPaginated",
      "outputs": [
        {
          "internalType": "address[]",
          "name": "tokens",
          "type": "address[]"
        }
      ],
      "stateMutability": "view",
      "type": "function"
    },
    {
      "inputs": [
        {
          "internalType": "address",
          "name": "",
          "type": "address"
        }
      ],
      "name": "isDeployedToken",
      "outputs": [
        {
          "internalType": "bool",
          "name": "",
          "type": "bool"
        }
      ],
      "stateMutability": "view",
      "type": "function"
    },
    {
      "inputs": [
        {
          "internalType": "address",
          "name": "tokenAddress",
          "type": "address"
        }
      ],
      "name": "isToken",
      "outputs": [
        {
          "internalType": "bool",
          "name": "",
          "type": "bool"
        }
      ],
      "stateMutability": "view",
      "type": "function"
    },
    {
      "inputs": [
        {
          "internalType": "string",
          "name": "",
          "type": "string"
        }
      ],
      "name": "merchantTokens",
      "outputs": [
        {
          "internalType": "address",
          "name": "",
          "type": "address"
        }
      ],
      "stateMutability": "view",
      "type": "function"
    },
    {
      "inputs": [],
      "name": "owner",
      "outputs": [
        {
          "internalType": "address",
          "name": "",
          "type": "address"
        }
      ],
      "stateMutability": "view",
      "type": "function"
    },
    {
      "inputs": [],
      "name": "renounceOwnership",
      "outputs": [],
      "stateMutability": "nonpayable",
      "type": "function"
    },
    {
      "inputs": [
        {
          "internalType": "address",
          "name": "newOwner",
          "type": "address"
        }
      ],
      "name": "transferOwnership",
      "outputs": [],
      "stateMutability": "nonpayable",
      "type": "function"
    }
  ],
  "bytecode": "0x608060405234801561001057600080fd5b50338061003757604051631e4fbdf760e01b81526000600482015260240160405180910390fd5b61004081610046565b50610096565b600080546001600160a01b038381166001600160a01b0319831681178455604051919092169283917f8be0079c531659141344cd1fd0a4f28419497f9722a3daafe3b4186f6b6457e09190a35050565b611e11806100a56000396000f3fe60806040523480156200001157600080fd5b5060043610620000c35760003560e01c806374594c86116200007a57806374594c86146200019e57806378a8956714620001b55780637ed3097914620001c75780638da5cb5b14620001fe578063ec81aadb1462000210578063f2fde38b146200022757600080fd5b806319f3736114620000c85780632482ee27146200010c5780632a5c792a146200013c5780634238b69214620001555780634c1c7ddf146200016c578063715018a61462000192575b600080fd5b620000f7620000d936600462000736565b6001600160a01b031660009081526003602052604090205460ff1690565b60405190151581526020015b60405180910390f35b620001236200011d366004620007b4565b6200023e565b6040516001600160a01b03909116815260200162000103565b6200014662000455565b60405162000103919062000874565b6200014662000166366004620008c3565b620004b9565b620000f76200017d36600462000736565b60036020526000908152604090205460ff1681565b6200019c620005eb565b005b62000123620001af366004620008e6565b62000603565b60015460405190815260200162000103565b62000123620001d836600462000942565b80516020818301810180516002825292820191909301209152546001600160a01b031681565b6000546001600160a01b031662000123565b6200012362000221366004620009fd565b6200063a565b6200019c6200023836600462000736565b62000665565b60006200024a620006a9565b60006001600160a01b0316600284846040516200026992919062000a17565b908152604051908190036020019020546001600160a01b031614620002e85760405162461bcd60e51b815260206004820152602a60248201527f546f6b656e466163746f72793a204d65726368616e7420616c7265616479206860448201526930b99030903a37b5b2b760b11b60648201526084015b60405180910390fd5b60008888888888620003026000546001600160a01b031690565b8989604051620003129062000728565b6200032598979695949392919062000a50565b604051809103906000f08015801562000342573d6000803e3d6000fd5b506001805480820182556000919091527fb10e2d527612073b26eecdfd717e6a320cf44b4afac2b0732d9fcbe2b7fa0cf60180546001600160a01b0319166001600160a01b0383161790556040519092508291508190600290620003aa908790879062000a17565b908152604080516020928190038301902080546001600160a01b0319166001600160a01b03948516179055848316600090815260039092528120805460ff1916600117905554166001600160a01b0316826001600160a01b03167f1467801a611ad018cd94e13039e550455998beca5bb67dc6746f5ca45b42d3c38b8b8b8b8b8b8b60405162000441979695949392919062000ab9565b60405180910390a350979650505050505050565b60606001805480602002602001604051908101604052809291908181526020018280548015620004af57602002820191906000526020600020905b81546001600160a01b0316815260019091019060200180831162000490575b5050505050905090565b600154606090808410620004de575050604080516000815260208101909152620005e5565b6000620004ec848662000b28565b905081811115620004fa5750805b600062000508868362000b3e565b90508067ffffffffffffffff8111156200052657620005266200092c565b60405190808252806020026020018201604052801562000550578160200160208202803683370190505b50935060005b81811015620005e05760016200056d828962000b28565b8154811062000580576200058062000b54565b9060005260206000200160009054906101000a90046001600160a01b0316858281518110620005b357620005b362000b54565b6001600160a01b039092166020928302919091019091015280620005d78162000b6a565b91505062000556565b505050505b92915050565b620005f5620006a9565b620006016000620006d8565b565b6000600283836040516200061992919062000a17565b908152604051908190036020019020546001600160a01b0316905092915050565b600181815481106200064b57600080fd5b6000918252602090912001546001600160a01b0316905081565b6200066f620006a9565b6001600160a01b0381166200069b57604051631e4fbdf760e01b815260006004820152602401620002df565b620006a681620006d8565b50565b6000546001600160a01b03163314620006015760405163118cdaa760e01b8152336004820152602401620002df565b600080546001600160a01b038381166001600160a01b0319831681178455604051919092169283917f8be0079c531659141344cd1fd0a4f28419497f9722a3daafe3b4186f6b6457e09190a35050565b6112558062000b8783390190565b6000602082840312156200074957600080fd5b81356001600160a01b03811681146200076157600080fd5b9392505050565b60008083601f8401126200077b57600080fd5b50813567ffffffffffffffff8111156200079457600080fd5b602083019150836020828501011115620007ad57600080fd5b9250929050565b60008060008060008060006080888a031215620007d057600080fd5b873567ffffffffffffffff80821115620007e957600080fd5b620007f78b838c0162000768565b909950975060208a01359150808211156200081157600080fd5b6200081f8b838c0162000768565b909750955060408a0135915060ff821682146200083b57600080fd5b909350606089013590808211156200085257600080fd5b50620008618a828b0162000768565b989b979a50959850939692959293505050565b6020808252825182820181905260009190848201906040850190845b81811015620008b75783516001600160a01b03168352928401929184019160010162000890565b50909695505050505050565b60008060408385031215620008d757600080fd5b50508035926020909101359150565b60008060208385031215620008fa57600080fd5b823567ffffffffffffffff8111156200091257600080fd5b620009208582860162000768565b90969095509350505050565b634e487b7160e01b600052604160045260246000fd5b6000602082840312156200095557600080fd5b813567ffffffffffffffff808211156200096e57600080fd5b818401915084601f8301126200098357600080fd5b8135818111156200099857620009986200092c565b604051601f8201601f19908116603f01168101908382118183101715620009c357620009c36200092c565b81604052828152876020848701011115620009dd57600080fd5b826020860160208301376000928101602001929092525095945050505050565b60006020828403121562000a1057600080fd5b5035919050565b8183823760009101908152919050565b81835281816020850137506000828201602090810191909152601f909101601f19169091010190565b60a08152600062000a6660a083018a8c62000a27565b828103602084015262000a7b81898b62000a27565b60ff881660408501526001600160a01b03871660608501528381036080850152905062000aaa81858762000a27565b9b9a5050505050505050505050565b60808152600062000acf60808301898b62000a27565b828103602084015262000ae481888a62000a27565b905060ff86166040840152828103606084015262000b0481858762000a27565b9a9950505050505050505050565b634e487b7160e01b600052601160045260246000fd5b80820180821115620005e557620005e562000b12565b81810381811115620005e557620005e562000b12565b634e487b7160e01b600052603260045260246000fd5b60006001820162000b7f5762000b7f62000b12565b506001019056fe60a06040523480156200001157600080fd5b5060405162001255380380620012558339810160408190526200003491620001ca565b818585600362000045838262000326565b50600462000054828262000326565b5050506001600160a01b0381166200008657604051631e4fbdf760e01b81526000600482015260240160405180910390fd5b6200009181620000b3565b5060ff83166080526006620000a7828262000326565b505050505050620003f2565b600580546001600160a01b038381166001600160a01b0319831681179093556040519116919082907f8be0079c531659141344cd1fd0a4f28419497f9722a3daafe3b4186f6b6457e090600090a35050565b634e487b7160e01b600052604160045260246000fd5b600082601f8301126200012d57600080fd5b81516001600160401b03808211156200014a576200014a62000105565b604051601f8301601f19908116603f0116810190828211818310171562000175576200017562000105565b816040528381526020925086838588010111156200019257600080fd5b600091505b83821015620001b6578582018301518183018401529082019062000197565b600093810190920192909252949350505050565b600080600080600060a08688031215620001e357600080fd5b85516001600160401b0380821115620001fb57600080fd5b6200020989838a016200011b565b965060208801519150808211156200022057600080fd5b6200022e89838a016200011b565b95506040880151915060ff821682146200024757600080fd5b60608801519194506001600160a01b03821682146200026557600080fd5b6080880151919350808211156200027b57600080fd5b506200028a888289016200011b565b9150509295509295909350565b600181811c90821680620002ac57607f821691505b602082108103620002cd57634e487b7160e01b600052602260045260246000fd5b50919050565b601f8211156200032157600081815260208120601f850160051c81016020861015620002fc5750805b601f850160051c820191505b818110156200031d5782815560010162000308565b5050505b505050565b81516001600160401b0381111562000342576200034262000105565b6200035a8162000353845462000297565b84620002d3565b602080601f831160018114620003925760008415620003795750858301515b600019600386901b1c1916600185901b1785556200031d565b600085815260208120601f198616915b82811015620003c357888601518255948401946001909101908401620003a2565b5085821015620003e25787850151600019600388901b60f8161c191681555b5050505050600190811b01905550565b608051610e476200040e60003960006101d10152610e476000f3fe608060405234801561001057600080fd5b50600436106101425760003560e01c806370a08231116100b85780638da5cb5b1161007c5780638da5cb5b1461029a57806395d89b41146102b5578063a9059cbb146102bd578063d6b8de93146102d0578063dd62ed3e146102e3578063f2fde38b1461031c57600080fd5b806370a082311461023b578063715018a61461026457806379cc67901461026c5780637ca485131461027f5780638456cb591461029257600080fd5b806323b872dd1161010a57806323b872dd146101b7578063313ce567146101ca5780633f4ba83a146101fb57806340c10f191461020357806342966c68146102165780635c975abb1461022957600080fd5b806306fdde0314610147578063091273a714610165578063095ea7b31461017a57806312f33a401461019d57806318160ddd146101a5575b600080fd5b61014f61032f565b60405161015c9190610b53565b60405180910390f35b610178610173366004610bea565b6103c1565b005b61018d610188366004610c52565b61041d565b604051901515815260200161015c565b61014f610437565b6002545b60405190815260200161015c565b61018d6101c5366004610c7c565b6104c5565b60405160ff7f000000000000000000000000000000000000000000000000000000000000000016815260200161015c565b6101786104e9565b610178610211366004610c52565b6104fb565b610178610224366004610cb8565b610519565b600554600160a01b900460ff1661018d565b6101a9610249366004610cd1565b6001600160a01b031660009081526020819052604090205490565b610178610526565b61017861027a366004610c52565b610538565b61017861028d366004610cf3565b61054d565b6101786105b2565b6005546040516001600160a01b03909116815260200161015c565b61014f6105c2565b61018d6102cb366004610c52565b6105d1565b6101786102de366004610cf3565b6105df565b6101a96102f1366004610d4d565b6001600160a01b03918216600090815260016020908152604080832093909416825291909152205490565b61017861032a366004610cd1565b610639565b60606003805461033e90610d80565b80601f016020809104026020016040519081016040528092919081815260200182805461036a90610d80565b80156103b75780601f1061038c576101008083540402835291602001916103b7565b820191906000526020600020905b81548152906001019060200180831161039a57829003601f168201915b5050505050905090565b6103c9610679565b6103d333846106a4565b336001600160a01b03167ffad31924d655455395c87544c8aa1ffdb5a7505a22a3c2e03f28003b6556a75f84848460405161041093929190610dba565b60405180910390a2505050565b60003361042b8185856106da565b60019150505b92915050565b6006805461044490610d80565b80601f016020809104026020016040519081016040528092919081815260200182805461047090610d80565b80156104bd5780601f10610492576101008083540402835291602001916104bd565b820191906000526020600020905b8154815290600101906020018083116104a057829003601f168201915b505050505081565b6000336104d38582856106ec565b6104de85858561076b565b506001949350505050565b6104f16107ca565b6104f96107f7565b565b6105036107ca565b61050b610679565b610515828261084c565b5050565b61052333826106a4565b50565b61052e6107ca565b6104f96000610882565b6105438233836106ec565b61051582826106a4565b6105556107ca565b61055d610679565b610567848461084c565b836001600160a01b03167f9d89e36eadf856db0ad9ffb5a569e07f95634dddd9501141ecf04820484ad0dc8484846040516105a493929190610dba565b60405180910390a250505050565b6105ba6107ca565b6104f96108d4565b60606004805461033e90610d80565b60003361042b81858561076b565b6105e7610679565b6105f28433856106ec565b6105fc84846106a4565b836001600160a01b03167ffad31924d655455395c87544c8aa1ffdb5a7505a22a3c2e03f28003b6556a75f8484846040516105a493929190610dba565b6106416107ca565b6001600160a01b03811661067057604051631e4fbdf760e01b8152600060048201526024015b60405180910390fd5b61052381610882565b600554600160a01b900460ff16156104f95760405163d93c066560e01b815260040160405180910390fd5b6001600160a01b0382166106ce57604051634b637e8f60e11b815260006004820152602401610667565b61051582600083610917565b6106e7838383600161092a565b505050565b6001600160a01b03838116600090815260016020908152604080832093861683529290522054600019811015610765578181101561075657604051637dc7a0d960e11b81526001600160a01b03841660048201526024810182905260448101839052606401610667565b6107658484848403600061092a565b50505050565b6001600160a01b03831661079557604051634b637e8f60e11b815260006004820152602401610667565b6001600160a01b0382166107bf5760405163ec442f0560e01b815260006004820152602401610667565b6106e7838383610917565b6005546001600160a01b031633146104f95760405163118cdaa760e01b8152336004820152602401610667565b6107ff6109ff565b6005805460ff60a01b191690557f5db9ee0a495bf2e6ff9c91a7834c1ba4fdd244a5e8aa4e537bd38aeae4b073aa335b6040516001600160a01b03909116815260200160405180910390a1565b6001600160a01b0382166108765760405163ec442f0560e01b815260006004820152602401610667565b61051560008383610917565b600580546001600160a01b038381166001600160a01b0319831681179093556040519116919082907f8be0079c531659141344cd1fd0a4f28419497f9722a3daafe3b4186f6b6457e090600090a35050565b6108dc610679565b6005805460ff60a01b1916600160a01b1790557f62e78cea01bee320cd4e420270b5ea74000d11b0c9f74754ebdbfc544b05a25861082f3390565b61091f610679565b6106e7838383610a29565b6001600160a01b0384166109545760405163e602df0560e01b815260006004820152602401610667565b6001600160a01b03831661097e57604051634a1406b160e11b815260006004820152602401610667565b6001600160a01b038085166000908152600160209081526040808320938716835292905220829055801561076557826001600160a01b0316846001600160a01b03167f8c5be1e5ebec7d5bd14f71427d1e84f3dd0314c0f7b2291e5b200ac8c7c3b925846040516109f191815260200190565b60405180910390a350505050565b600554600160a01b900460ff166104f957604051638dfc202b60e01b815260040160405180910390fd5b6001600160a01b038316610a54578060026000828254610a499190610df0565b90915550610ac69050565b6001600160a01b03831660009081526020819052604090205481811015610aa75760405163391434e360e21b81526001600160a01b03851660048201526024810182905260448101839052606401610667565b6001600160a01b03841660009081526020819052604090209082900390555b6001600160a01b038216610ae257600280548290039055610b01565b6001600160a01b03821660009081526020819052604090208054820190555b816001600160a01b0316836001600160a01b03167fddf252ad1be2c89b69c2b068fc378daa952ba7f163c4a11628f55a4df523b3ef83604051610b4691815260200190565b60405180910390a3505050565b600060208083528351808285015260005b81811015610b8057858101830151858201604001528201610b64565b506000604082860101526040601f19601f8301168501019250505092915050565b60008083601f840112610bb357600080fd5b50813567ffffffffffffffff811115610bcb57600080fd5b602083019150836020828501011115610be357600080fd5b9250929050565b600080600060408486031215610bff57600080fd5b83359250602084013567ffffffffffffffff811115610c1d57600080fd5b610c2986828701610ba1565b9497909650939450505050565b80356001600160a01b0381168114610c4d57600080fd5b919050565b60008060408385031215610c6557600080fd5b610c6e83610c36565b946020939093013593505050565b600080600060608486031215610c9157600080fd5b610c9a84610c36565b9250610ca860208501610c36565b9150604084013590509250925092565b600060208284031215610cca57600080fd5b5035919050565b600060208284031215610ce357600080fd5b610cec82610c36565b9392505050565b60008060008060608587031215610d0957600080fd5b610d1285610c36565b935060208501359250604085013567ffffffffffffffff811115610d3557600080fd5b610d4187828801610ba1565b95989497509550505050565b60008060408385031215610d6057600080fd5b610d6983610c36565b9150610d7760208401610c36565b90509250929050565b600181811c90821680610d9457607f821691505b602082108103610db457634e487b7160e01b600052602260045260246000fd5b50919050565b83815260406020820152816040820152818360608301376000818301606090810191909152601f909201601f1916010192915050565b8082018082111561043157634e487b7160e01b600052601160045260246000fdfea2646970667358221220c91bde82cf4c35f96761d71be6fd8f79963828866e90398271a88ca829dee88864736f6c63430008140033a2646970667358221220896132a42c308a8d8629ecd9962311fa4a5c89b31aad35e76328d0813180483464736f6c63430008140033",
  "linkReferences": {},
  "deployedLinkReferences": {}
}